{
  "address": "0xb95f4f9767F9C837dCab7F3956760350F16dD95E",
  "abi": [
    {
      "inputs": [
        {
          "internalType": "address",
          "name": "bridgeAddress",
          "type": "address"
        }
      ],
      "stateMutability": "nonpayable",
      "type": "constructor"
    },
    {
      "anonymous": false,
      "inputs": [
        {
          "indexed": true,
          "internalType": "address",
          "name": "previousOwner",
          "type": "address"
        },
        {
          "indexed": true,
          "internalType": "address",
          "name": "newOwner",
          "type": "address"
        }
      ],
      "name": "OwnershipTransferred",
      "type": "event"
    },
    {
      "anonymous": false,
      "inputs": [
        {
          "indexed": true,
          "internalType": "address",
          "name": "routerAddress",
          "type": "address"
        }
      ],
      "name": "UpdatedRouter",
      "type": "event"
    },
    {
      "inputs": [],
      "name": "owner",
      "outputs": [
        {
          "internalType": "address",
          "name": "",
          "type": "address"
        }
      ],
      "stateMutability": "view",
      "type": "function"
    },
    {
      "inputs": [],
      "name": "renounceOwnership",
      "outputs": [],
      "stateMutability": "nonpayable",
      "type": "function"
    },
    {
      "inputs": [
        {
          "internalType": "address",
          "name": "_token",
          "type": "address"
        },
        {
          "internalType": "uint256",
          "name": "_amount",
          "type": "uint256"
        }
      ],
      "name": "retrieve",
      "outputs": [],
      "stateMutability": "nonpayable",
      "type": "function"
    },
    {
      "inputs": [
        {
          "internalType": "address",
          "name": "_token",
          "type": "address"
        },
        {
          "internalType": "address",
          "name": "_router",
          "type": "address"
        },
        {
          "internalType": "uint256",
          "name": "_amount",
          "type": "uint256"
        },
        {
          "internalType": "uint256",
          "name": "_toChainId",
          "type": "uint256"
        },
        {
          "internalType": "bytes",
          "name": "_data",
          "type": "bytes"
        }
      ],
      "name": "send",
      "outputs": [],
      "stateMutability": "nonpayable",
      "type": "function"
    },
    {
      "inputs": [
        {
          "internalType": "address",
          "name": "newOwner",
          "type": "address"
        }
      ],
      "name": "transferOwnership",
      "outputs": [],
      "stateMutability": "nonpayable",
      "type": "function"
    },
    {
      "inputs": [
        {
          "internalType": "address",
          "name": "routerAddress",
          "type": "address"
        }
      ],
      "name": "updateRouter",
      "outputs": [],
      "stateMutability": "nonpayable",
      "type": "function"
    }
  ],
  "transactionHash": "0xbf308eefb8f43782274aa1cefadcaf054bbb39c55f02794a5bfcebdd857adc96",
  "args": [
    "0x4f3aff3a747fcade12598081e80c6605a8be192f"
  ],
  "numDeployments": 1,
  "solcInputHash": "85e3bad8a7553ecd0888d2671c208e6e",
  "bytecode": "0x60806040523480156200001157600080fd5b506040516200138938038062001389833981810160405281019062000037919062000182565b620000576200004b6200009f60201b60201c565b620000a760201b60201c565b80600260006101000a81548173ffffffffffffffffffffffffffffffffffffffff021916908373ffffffffffffffffffffffffffffffffffffffff16021790555050620001fc565b600033905090565b60008060009054906101000a900473ffffffffffffffffffffffffffffffffffffffff169050816000806101000a81548173ffffffffffffffffffffffffffffffffffffffff021916908373ffffffffffffffffffffffffffffffffffffffff1602179055508173ffffffffffffffffffffffffffffffffffffffff168173ffffffffffffffffffffffffffffffffffffffff167f8be0079c531659141344cd1fd0a4f28419497f9722a3daafe3b4186f6b6457e060405160405180910390a35050565b6000815190506200017c81620001e2565b92915050565b6000602082840312156200019557600080fd5b6000620001a5848285016200016b565b91505092915050565b6000620001bb82620001c2565b9050919050565b600073ffffffffffffffffffffffffffffffffffffffff82169050919050565b620001ed81620001ae565b8114620001f957600080fd5b50565b61117d806200020c6000396000f3fe608060405234801561001057600080fd5b50600436106100625760003560e01c8063148f2d1114610067578063715018a6146100835780638da5cb5b1461008d578063c3a2a665146100ab578063c851cc32146100c7578063f2fde38b146100e3575b600080fd5b610081600480360381019061007c9190610b6c565b6100ff565b005b61008b610277565b005b6100956102ff565b6040516100a29190610d9b565b60405180910390f35b6100c560048036038101906100c09190610bfe565b610328565b005b6100e160048036038101906100dc9190610b1a565b6103b3565b005b6100fd60048036038101906100f89190610b1a565b6104b6565b005b600160009054906101000a900473ffffffffffffffffffffffffffffffffffffffff1673ffffffffffffffffffffffffffffffffffffffff163373ffffffffffffffffffffffffffffffffffffffff161461018f576040517f08c379a000000000000000000000000000000000000000000000000000000000815260040161018690610e9b565b60405180910390fd5b61019b868630876105ae565b6101c886600260009054906101000a900473ffffffffffffffffffffffffffffffffffffffff1686610706565b600082828101906101d99190610b43565b9050600260009054906101000a900473ffffffffffffffffffffffffffffffffffffffff1673ffffffffffffffffffffffffffffffffffffffff1663edbdf5e2828888886040518563ffffffff1660e01b815260040161023c9493929190610ded565b600060405180830381600087803b15801561025657600080fd5b505af115801561026a573d6000803e3d6000fd5b5050505050505050505050565b61027f61085b565b73ffffffffffffffffffffffffffffffffffffffff1661029d6102ff565b73ffffffffffffffffffffffffffffffffffffffff16146102f3576040517f08c379a00000000000000000000000000000000000000000000000000000000081526004016102ea90610edb565b60405180910390fd5b6102fd6000610863565b565b60008060009054906101000a900473ffffffffffffffffffffffffffffffffffffffff16905090565b61033061085b565b73ffffffffffffffffffffffffffffffffffffffff1661034e6102ff565b73ffffffffffffffffffffffffffffffffffffffff16146103a4576040517f08c379a000000000000000000000000000000000000000000000000000000000815260040161039b90610edb565b60405180910390fd5b6103af823383610927565b5050565b6103bb61085b565b73ffffffffffffffffffffffffffffffffffffffff166103d96102ff565b73ffffffffffffffffffffffffffffffffffffffff161461042f576040517f08c379a000000000000000000000000000000000000000000000000000000000815260040161042690610edb565b60405180910390fd5b80600160006101000a81548173ffffffffffffffffffffffffffffffffffffffff021916908373ffffffffffffffffffffffffffffffffffffffff1602179055508073ffffffffffffffffffffffffffffffffffffffff167f66fc0187dfabf79860e1b18e6c175c92baf9ed88c8a01d0bfdb97d1f0450f7f760405160405180910390a250565b6104be61085b565b73ffffffffffffffffffffffffffffffffffffffff166104dc6102ff565b73ffffffffffffffffffffffffffffffffffffffff1614610532576040517f08c379a000000000000000000000000000000000000000000000000000000000815260040161052990610edb565b60405180910390fd5b600073ffffffffffffffffffffffffffffffffffffffff168173ffffffffffffffffffffffffffffffffffffffff1614156105a2576040517f08c379a000000000000000000000000000000000000000000000000000000000815260040161059990610e7b565b60405180910390fd5b6105ab81610863565b50565b6000808573ffffffffffffffffffffffffffffffffffffffff166323b872dd60e01b8686866040516024016105e593929190610db6565b604051602081830303815290604052907bffffffffffffffffffffffffffffffffffffffffffffffffffffffff19166020820180517bffffffffffffffffffffffffffffffffffffffffffffffffffffffff838183161783525050505060405161064f9190610d84565b6000604051808303816000865af19150503d806000811461068c576040519150601f19603f3d011682016040523d82523d6000602084013e610691565b606091505b50915091508180156106bf57506000815114806106be5750808060200190518101906106bd9190610c3a565b5b5b6106fe576040517f08c379a00000000000000000000000000000000000000000000000000000000081526004016106f590610efb565b60405180910390fd5b505050505050565b6000808473ffffffffffffffffffffffffffffffffffffffff1663095ea7b360e01b858560405160240161073b929190610e32565b604051602081830303815290604052907bffffffffffffffffffffffffffffffffffffffffffffffffffffffff19166020820180517bffffffffffffffffffffffffffffffffffffffffffffffffffffffff83818316178352505050506040516107a59190610d84565b6000604051808303816000865af19150503d80600081146107e2576040519150601f19603f3d011682016040523d82523d6000602084013e6107e7565b606091505b509150915081801561081557506000815114806108145750808060200190518101906108139190610c3a565b5b5b610854576040517f08c379a000000000000000000000000000000000000000000000000000000000815260040161084b90610e5b565b60405180910390fd5b5050505050565b600033905090565b60008060009054906101000a900473ffffffffffffffffffffffffffffffffffffffff169050816000806101000a81548173ffffffffffffffffffffffffffffffffffffffff021916908373ffffffffffffffffffffffffffffffffffffffff1602179055508173ffffffffffffffffffffffffffffffffffffffff168173ffffffffffffffffffffffffffffffffffffffff167f8be0079c531659141344cd1fd0a4f28419497f9722a3daafe3b4186f6b6457e060405160405180910390a35050565b6000808473ffffffffffffffffffffffffffffffffffffffff1663a9059cbb60e01b858560405160240161095c929190610e32565b604051602081830303815290604052907bffffffffffffffffffffffffffffffffffffffffffffffffffffffff19166020820180517bffffffffffffffffffffffffffffffffffffffffffffffffffffffff83818316178352505050506040516109c69190610d84565b6000604051808303816000865af19150503d8060008114610a03576040519150601f19603f3d011682016040523d82523d6000602084013e610a08565b606091505b5091509150818015610a365750600081511480610a35575080806020019051810190610a349190610c3a565b5b5b610a75576040517f08c379a0000000000000000000000000000000000000000000000000000000008152600401610a6c90610ebb565b60405180910390fd5b5050505050565b600081359050610a8b816110eb565b92915050565b600081359050610aa081611102565b92915050565b600081519050610ab581611119565b92915050565b60008083601f840112610acd57600080fd5b8235905067ffffffffffffffff811115610ae657600080fd5b602083019150836001820283011115610afe57600080fd5b9250929050565b600081359050610b1481611130565b92915050565b600060208284031215610b2c57600080fd5b6000610b3a84828501610a7c565b91505092915050565b600060208284031215610b5557600080fd5b6000610b6384828501610a91565b91505092915050565b60008060008060008060a08789031215610b8557600080fd5b6000610b9389828a01610a7c565b9650506020610ba489828a01610a7c565b9550506040610bb589828a01610b05565b9450506060610bc689828a01610b05565b935050608087013567ffffffffffffffff811115610be357600080fd5b610bef89828a01610abb565b92509250509295509295509295565b60008060408385031215610c1157600080fd5b6000610c1f85828601610a7c565b9250506020610c3085828601610b05565b9150509250929050565b600060208284031215610c4c57600080fd5b6000610c5a84828501610aa6565b91505092915050565b610c6c81610f42565b82525050565b6000610c7d82610f1b565b610c878185610f26565b9350610c97818560208601610f9c565b80840191505092915050565b6000610cb0600283610f31565b9150610cbb82610fcf565b602082019050919050565b6000610cd3602683610f31565b9150610cde82610ff8565b604082019050919050565b6000610cf6601383610f31565b9150610d0182611047565b602082019050919050565b6000610d19600283610f31565b9150610d2482611070565b602082019050919050565b6000610d3c602083610f31565b9150610d4782611099565b602082019050919050565b6000610d5f600383610f31565b9150610d6a826110c2565b602082019050919050565b610d7e81610f92565b82525050565b6000610d908284610c72565b915081905092915050565b6000602082019050610db06000830184610c63565b92915050565b6000606082019050610dcb6000830186610c63565b610dd86020830185610c63565b610de56040830184610d75565b949350505050565b6000608082019050610e026000830187610c63565b610e0f6020830186610c63565b610e1c6040830185610d75565b610e296060830184610d75565b95945050505050565b6000604082019050610e476000830185610c63565b610e546020830184610d75565b9392505050565b60006020820190508181036000830152610e7481610ca3565b9050919050565b60006020820190508181036000830152610e9481610cc6565b9050919050565b60006020820190508181036000830152610eb481610ce9565b9050919050565b60006020820190508181036000830152610ed481610d0c565b9050919050565b60006020820190508181036000830152610ef481610d2f565b9050919050565b60006020820190508181036000830152610f1481610d52565b9050919050565b600081519050919050565b600081905092915050565b600082825260208201905092915050565b6000610f4d82610f72565b9050919050565b6000610f5f82610f72565b9050919050565b60008115159050919050565b600073ffffffffffffffffffffffffffffffffffffffff82169050919050565b6000819050919050565b60005b83811015610fba578082015181840152602081019050610f9f565b83811115610fc9576000848401525b50505050565b7f5341000000000000000000000000000000000000000000000000000000000000600082015250565b7f4f776e61626c653a206e6577206f776e657220697320746865207a65726f206160008201527f6464726573730000000000000000000000000000000000000000000000000000602082015250565b7f556e617574686f72697a65642063616c6c657200000000000000000000000000600082015250565b7f5354000000000000000000000000000000000000000000000000000000000000600082015250565b7f4f776e61626c653a2063616c6c6572206973206e6f7420746865206f776e6572600082015250565b7f5354460000000000000000000000000000000000000000000000000000000000600082015250565b6110f481610f42565b81146110ff57600080fd5b50565b61110b81610f54565b811461111657600080fd5b50565b61112281610f66565b811461112d57600080fd5b50565b61113981610f92565b811461114457600080fd5b5056fea264697066735822122029fc2f0eea4774b192dd58cb90f958c012cea319c864ac150b9da7ce689f16b664736f6c63430008010033",
  "devdoc": {
    "kind": "dev",
    "methods": {
      "owner()": {
        "details": "Returns the address of the current owner."
      },
      "renounceOwnership()": {
        "details": "Leaves the contract without owner. It will not be possible to call `onlyOwner` functions anymore. Can only be called by the current owner. NOTE: Renouncing ownership will leave the contract without an owner, thereby removing any functionality that is only available to the owner."
      },
      "transferOwnership(address)": {
        "details": "Transfers ownership of the contract to a new account (`newOwner`). Can only be called by the current owner."
      }
    },
    "version": 1
  },
  "userdoc": {
    "kind": "user",
    "methods": {},
    "version": 1
  },
  "storageLayout": {
    "storage": [
      {
        "astId": 7,
        "contract": "contracts/bridge/Anyswap.sol:Anyswap",
        "label": "_owner",
        "offset": 0,
        "slot": "0",
        "type": "t_address"
      },
      {
        "astId": 907,
        "contract": "contracts/bridge/Anyswap.sol:Anyswap",
        "label": "router",
        "offset": 0,
        "slot": "1",
        "type": "t_address"
      },
      {
        "astId": 827,
        "contract": "contracts/bridge/Anyswap.sol:Anyswap",
        "label": "bridge",
        "offset": 0,
        "slot": "2",
        "type": "t_contract(AnyswapRouter)822"
      }
    ],
    "types": {
      "t_address": {
        "encoding": "inplace",
        "label": "address",
        "numberOfBytes": "20"
      },
      "t_contract(AnyswapRouter)822": {
        "encoding": "inplace",
        "label": "contract AnyswapRouter",
        "numberOfBytes": "20"
      }
    }
  }
}