{
  "address": "0x3d08265f9ad4E0357c6919572fc7A816B0B6C43E",
  "abi": [
    {
      "inputs": [
        {
          "internalType": "address",
          "name": "bridgeAddress",
          "type": "address"
        }
      ],
      "stateMutability": "nonpayable",
      "type": "constructor"
    },
    {
      "anonymous": false,
      "inputs": [
        {
          "indexed": true,
          "internalType": "address",
          "name": "previousOwner",
          "type": "address"
        },
        {
          "indexed": true,
          "internalType": "address",
          "name": "newOwner",
          "type": "address"
        }
      ],
      "name": "OwnershipTransferred",
      "type": "event"
    },
    {
      "anonymous": false,
      "inputs": [
        {
          "indexed": true,
          "internalType": "address",
          "name": "routerAddress",
          "type": "address"
        }
      ],
      "name": "UpdatedRouter",
      "type": "event"
    },
    {
      "inputs": [],
      "name": "owner",
      "outputs": [
        {
          "internalType": "address",
          "name": "",
          "type": "address"
        }
      ],
      "stateMutability": "view",
      "type": "function"
    },
    {
      "inputs": [],
      "name": "renounceOwnership",
      "outputs": [],
      "stateMutability": "nonpayable",
      "type": "function"
    },
    {
      "inputs": [
        {
          "internalType": "address",
          "name": "_anyToken",
          "type": "address"
        },
        {
          "internalType": "address",
          "name": "_token",
          "type": "address"
        },
        {
          "internalType": "address",
          "name": "_recipient",
          "type": "address"
        },
        {
          "internalType": "uint256",
          "name": "_amount",
          "type": "uint256"
        },
        {
          "internalType": "uint256",
          "name": "_toChainId",
          "type": "uint256"
        }
      ],
      "name": "send",
      "outputs": [],
      "stateMutability": "nonpayable",
      "type": "function"
    },
    {
      "inputs": [
        {
          "internalType": "address",
          "name": "newOwner",
          "type": "address"
        }
      ],
      "name": "transferOwnership",
      "outputs": [],
      "stateMutability": "nonpayable",
      "type": "function"
    },
    {
      "inputs": [
        {
          "internalType": "address",
          "name": "routerAddress",
          "type": "address"
        }
      ],
      "name": "updateRouter",
      "outputs": [],
      "stateMutability": "nonpayable",
      "type": "function"
    }
  ],
  "transactionHash": "0x74c92f95c92cca68203d4f48e7a3e93bf39c007a5e8a4c2a7e942b59db5f4775",
  "args": [
    "0x4f3aff3a747fcade12598081e80c6605a8be192f"
  ],
  "numDeployments": 3,
  "solcInputHash": "6fb398d6b6b7b6a5ea4ba2b7966b2c1d",
  "bytecode": "0x60806040523480156200001157600080fd5b5060405162000ff938038062000ff9833981810160405281019062000037919062000182565b620000576200004b6200009f60201b60201c565b620000a760201b60201c565b80600260006101000a81548173ffffffffffffffffffffffffffffffffffffffff021916908373ffffffffffffffffffffffffffffffffffffffff16021790555050620001fc565b600033905090565b60008060009054906101000a900473ffffffffffffffffffffffffffffffffffffffff169050816000806101000a81548173ffffffffffffffffffffffffffffffffffffffff021916908373ffffffffffffffffffffffffffffffffffffffff1602179055508173ffffffffffffffffffffffffffffffffffffffff168173ffffffffffffffffffffffffffffffffffffffff167f8be0079c531659141344cd1fd0a4f28419497f9722a3daafe3b4186f6b6457e060405160405180910390a35050565b6000815190506200017c81620001e2565b92915050565b6000602082840312156200019557600080fd5b6000620001a5848285016200016b565b91505092915050565b6000620001bb82620001c2565b9050919050565b600073ffffffffffffffffffffffffffffffffffffffff82169050919050565b620001ed81620001ae565b8114620001f957600080fd5b50565b610ded806200020c6000396000f3fe608060405234801561001057600080fd5b50600436106100575760003560e01c8063715018a61461005c5780638da5cb5b14610066578063c851cc3214610084578063cffdc521146100a0578063f2fde38b146100bc575b600080fd5b6100646100d8565b005b61006e610160565b60405161007b9190610a7d565b60405180910390f35b61009e6004803603810190610099919061089f565b610189565b005b6100ba60048036038101906100b591906108c8565b61028c565b005b6100d660048036038101906100d1919061089f565b6103ef565b005b6100e06104e7565b73ffffffffffffffffffffffffffffffffffffffff166100fe610160565b73ffffffffffffffffffffffffffffffffffffffff1614610154576040517f08c379a000000000000000000000000000000000000000000000000000000000815260040161014b90610b9d565b60405180910390fd5b61015e60006104ef565b565b60008060009054906101000a900473ffffffffffffffffffffffffffffffffffffffff16905090565b6101916104e7565b73ffffffffffffffffffffffffffffffffffffffff166101af610160565b73ffffffffffffffffffffffffffffffffffffffff1614610205576040517f08c379a00000000000000000000000000000000000000000000000000000000081526004016101fc90610b9d565b60405180910390fd5b80600160006101000a81548173ffffffffffffffffffffffffffffffffffffffff021916908373ffffffffffffffffffffffffffffffffffffffff1602179055508073ffffffffffffffffffffffffffffffffffffffff167f66fc0187dfabf79860e1b18e6c175c92baf9ed88c8a01d0bfdb97d1f0450f7f760405160405180910390a250565b600160009054906101000a900473ffffffffffffffffffffffffffffffffffffffff1673ffffffffffffffffffffffffffffffffffffffff163373ffffffffffffffffffffffffffffffffffffffff161461031c576040517f08c379a000000000000000000000000000000000000000000000000000000000815260040161031390610b7d565b60405180910390fd5b610328848430856105b3565b61035584600260009054906101000a900473ffffffffffffffffffffffffffffffffffffffff168461070b565b600260009054906101000a900473ffffffffffffffffffffffffffffffffffffffff1673ffffffffffffffffffffffffffffffffffffffff1663edbdf5e2868585856040518563ffffffff1660e01b81526004016103b69493929190610acf565b600060405180830381600087803b1580156103d057600080fd5b505af11580156103e4573d6000803e3d6000fd5b505050505050505050565b6103f76104e7565b73ffffffffffffffffffffffffffffffffffffffff16610415610160565b73ffffffffffffffffffffffffffffffffffffffff161461046b576040517f08c379a000000000000000000000000000000000000000000000000000000000815260040161046290610b9d565b60405180910390fd5b600073ffffffffffffffffffffffffffffffffffffffff168173ffffffffffffffffffffffffffffffffffffffff1614156104db576040517f08c379a00000000000000000000000000000000000000000000000000000000081526004016104d290610b5d565b60405180910390fd5b6104e4816104ef565b50565b600033905090565b60008060009054906101000a900473ffffffffffffffffffffffffffffffffffffffff169050816000806101000a81548173ffffffffffffffffffffffffffffffffffffffff021916908373ffffffffffffffffffffffffffffffffffffffff1602179055508173ffffffffffffffffffffffffffffffffffffffff168173ffffffffffffffffffffffffffffffffffffffff167f8be0079c531659141344cd1fd0a4f28419497f9722a3daafe3b4186f6b6457e060405160405180910390a35050565b6000808573ffffffffffffffffffffffffffffffffffffffff166323b872dd60e01b8686866040516024016105ea93929190610a98565b604051602081830303815290604052907bffffffffffffffffffffffffffffffffffffffffffffffffffffffff19166020820180517bffffffffffffffffffffffffffffffffffffffffffffffffffffffff83818316178352505050506040516106549190610a66565b6000604051808303816000865af19150503d8060008114610691576040519150601f19603f3d011682016040523d82523d6000602084013e610696565b606091505b50915091508180156106c457506000815114806106c35750808060200190518101906106c2919061093f565b5b5b610703576040517f08c379a00000000000000000000000000000000000000000000000000000000081526004016106fa90610bbd565b60405180910390fd5b505050505050565b6000808473ffffffffffffffffffffffffffffffffffffffff1663095ea7b360e01b8585604051602401610740929190610b14565b604051602081830303815290604052907bffffffffffffffffffffffffffffffffffffffffffffffffffffffff19166020820180517bffffffffffffffffffffffffffffffffffffffffffffffffffffffff83818316178352505050506040516107aa9190610a66565b6000604051808303816000865af19150503d80600081146107e7576040519150601f19603f3d011682016040523d82523d6000602084013e6107ec565b606091505b509150915081801561081a5750600081511480610819575080806020019051810190610818919061093f565b5b5b610859576040517f08c379a000000000000000000000000000000000000000000000000000000000815260040161085090610b3d565b60405180910390fd5b5050505050565b60008135905061086f81610d72565b92915050565b60008151905061088481610d89565b92915050565b60008135905061089981610da0565b92915050565b6000602082840312156108b157600080fd5b60006108bf84828501610860565b91505092915050565b600080600080600060a086880312156108e057600080fd5b60006108ee88828901610860565b95505060206108ff88828901610860565b945050604061091088828901610860565b93505060606109218882890161088a565b92505060806109328882890161088a565b9150509295509295909350565b60006020828403121561095157600080fd5b600061095f84828501610875565b91505092915050565b61097181610c04565b82525050565b600061098282610bdd565b61098c8185610be8565b935061099c818560208601610c4c565b80840191505092915050565b60006109b5600283610bf3565b91506109c082610c7f565b602082019050919050565b60006109d8602683610bf3565b91506109e382610ca8565b604082019050919050565b60006109fb601383610bf3565b9150610a0682610cf7565b602082019050919050565b6000610a1e602083610bf3565b9150610a2982610d20565b602082019050919050565b6000610a41600383610bf3565b9150610a4c82610d49565b602082019050919050565b610a6081610c42565b82525050565b6000610a728284610977565b915081905092915050565b6000602082019050610a926000830184610968565b92915050565b6000606082019050610aad6000830186610968565b610aba6020830185610968565b610ac76040830184610a57565b949350505050565b6000608082019050610ae46000830187610968565b610af16020830186610968565b610afe6040830185610a57565b610b0b6060830184610a57565b95945050505050565b6000604082019050610b296000830185610968565b610b366020830184610a57565b9392505050565b60006020820190508181036000830152610b56816109a8565b9050919050565b60006020820190508181036000830152610b76816109cb565b9050919050565b60006020820190508181036000830152610b96816109ee565b9050919050565b60006020820190508181036000830152610bb681610a11565b9050919050565b60006020820190508181036000830152610bd681610a34565b9050919050565b600081519050919050565b600081905092915050565b600082825260208201905092915050565b6000610c0f82610c22565b9050919050565b60008115159050919050565b600073ffffffffffffffffffffffffffffffffffffffff82169050919050565b6000819050919050565b60005b83811015610c6a578082015181840152602081019050610c4f565b83811115610c79576000848401525b50505050565b7f5341000000000000000000000000000000000000000000000000000000000000600082015250565b7f4f776e61626c653a206e6577206f776e657220697320746865207a65726f206160008201527f6464726573730000000000000000000000000000000000000000000000000000602082015250565b7f556e617574686f72697a65642063616c6c657200000000000000000000000000600082015250565b7f4f776e61626c653a2063616c6c6572206973206e6f7420746865206f776e6572600082015250565b7f5354460000000000000000000000000000000000000000000000000000000000600082015250565b610d7b81610c04565b8114610d8657600080fd5b50565b610d9281610c16565b8114610d9d57600080fd5b50565b610da981610c42565b8114610db457600080fd5b5056fea2646970667358221220c58c06f833f9c4bf423e23f580ae7d4609c872f18c09fadec86affe94271c17a64736f6c63430008010033",
  "devdoc": {
    "kind": "dev",
    "methods": {
      "owner()": {
        "details": "Returns the address of the current owner."
      },
      "renounceOwnership()": {
        "details": "Leaves the contract without owner. It will not be possible to call `onlyOwner` functions anymore. Can only be called by the current owner. NOTE: Renouncing ownership will leave the contract without an owner, thereby removing any functionality that is only available to the owner."
      },
      "transferOwnership(address)": {
        "details": "Transfers ownership of the contract to a new account (`newOwner`). Can only be called by the current owner."
      }
    },
    "version": 1
  },
  "userdoc": {
    "kind": "user",
    "methods": {},
    "version": 1
  },
  "storageLayout": {
    "storage": [
      {
        "astId": 7,
        "contract": "contracts/bridge/Anyswap.sol:Anyswap",
        "label": "_owner",
        "offset": 0,
        "slot": "0",
        "type": "t_address"
      },
      {
        "astId": 691,
        "contract": "contracts/bridge/Anyswap.sol:Anyswap",
        "label": "router",
        "offset": 0,
        "slot": "1",
        "type": "t_address"
      },
      {
        "astId": 622,
        "contract": "contracts/bridge/Anyswap.sol:Anyswap",
        "label": "bridge",
        "offset": 0,
        "slot": "2",
        "type": "t_contract(AnyswapRouter)617"
      }
    ],
    "types": {
      "t_address": {
        "encoding": "inplace",
        "label": "address",
        "numberOfBytes": "20"
      },
      "t_contract(AnyswapRouter)617": {
        "encoding": "inplace",
        "label": "contract AnyswapRouter",
        "numberOfBytes": "20"
      }
    }
  }
}