{
  "address": "0x40acD8E666a4e4efE39330DE28A8A7D1281B4FB7",
  "abi": [
    {
      "inputs": [
        {
          "internalType": "address",
          "name": "_anyswapRouterAddress",
          "type": "address"
        }
      ],
      "stateMutability": "nonpayable",
      "type": "constructor"
    },
    {
      "anonymous": false,
      "inputs": [
        {
          "indexed": false,
          "internalType": "uint256",
          "name": "amount",
          "type": "uint256"
        },
        {
          "indexed": true,
          "internalType": "uint256",
          "name": "toChainId",
          "type": "uint256"
        },
        {
          "indexed": true,
          "internalType": "address",
          "name": "router",
          "type": "address"
        },
        {
          "indexed": false,
          "internalType": "address",
          "name": "user",
          "type": "address"
        },
        {
          "indexed": false,
          "internalType": "address",
          "name": "dstTokenIn",
          "type": "address"
        },
        {
          "indexed": false,
          "internalType": "address",
          "name": "dstTokenOut",
          "type": "address"
        },
        {
          "indexed": false,
          "internalType": "address",
          "name": "maker",
          "type": "address"
        },
        {
          "indexed": false,
          "internalType": "bytes",
          "name": "data",
          "type": "bytes"
        }
      ],
      "name": "CrossInitiated",
      "type": "event"
    },
    {
      "anonymous": false,
      "inputs": [
        {
          "indexed": true,
          "internalType": "address",
          "name": "previousOwner",
          "type": "address"
        },
        {
          "indexed": true,
          "internalType": "address",
          "name": "newOwner",
          "type": "address"
        }
      ],
      "name": "OwnershipTransferred",
      "type": "event"
    },
    {
      "inputs": [
        {
          "components": [
            {
              "internalType": "address",
              "name": "tokenIn",
              "type": "address"
            },
            {
              "internalType": "address",
              "name": "tokenOut",
              "type": "address"
            },
            {
              "internalType": "address payable",
              "name": "callAddress",
              "type": "address"
            },
            {
              "internalType": "bytes",
              "name": "callData",
              "type": "bytes"
            }
          ],
          "internalType": "struct Router.SwapData",
          "name": "_swapData",
          "type": "tuple"
        },
        {
          "internalType": "uint256",
          "name": "_amount",
          "type": "uint256"
        },
        {
          "internalType": "address",
          "name": "_receiver",
          "type": "address"
        }
      ],
      "name": "finalizeTokenCross",
      "outputs": [],
      "stateMutability": "payable",
      "type": "function"
    },
    {
      "inputs": [
        {
          "internalType": "uint256",
          "name": "_srcAmount",
          "type": "uint256"
        },
        {
          "components": [
            {
              "internalType": "address",
              "name": "tokenIn",
              "type": "address"
            },
            {
              "internalType": "address",
              "name": "tokenOut",
              "type": "address"
            },
            {
              "internalType": "address payable",
              "name": "callAddress",
              "type": "address"
            },
            {
              "internalType": "bytes",
              "name": "callData",
              "type": "bytes"
            }
          ],
          "internalType": "struct Router.SwapData",
          "name": "_srcSwapData",
          "type": "tuple"
        },
        {
          "components": [
            {
              "internalType": "address",
              "name": "tokenIn",
              "type": "address"
            },
            {
              "internalType": "address",
              "name": "tokenOut",
              "type": "address"
            },
            {
              "internalType": "address payable",
              "name": "callAddress",
              "type": "address"
            },
            {
              "internalType": "bytes",
              "name": "callData",
              "type": "bytes"
            }
          ],
          "internalType": "struct Router.SwapData",
          "name": "_dstSwapData",
          "type": "tuple"
        },
        {
          "components": [
            {
              "internalType": "address",
              "name": "tokenIn",
              "type": "address"
            },
            {
              "internalType": "address",
              "name": "receiverAddress",
              "type": "address"
            },
            {
              "internalType": "uint256",
              "name": "toChainId",
              "type": "uint256"
            },
            {
              "internalType": "bytes",
              "name": "data",
              "type": "bytes"
            }
          ],
          "internalType": "struct Router.BridgeData",
          "name": "_bridgeData",
          "type": "tuple"
        }
      ],
      "name": "initTokensCross",
      "outputs": [],
      "stateMutability": "payable",
      "type": "function"
    },
    {
      "inputs": [],
      "name": "owner",
      "outputs": [
        {
          "internalType": "address",
          "name": "",
          "type": "address"
        }
      ],
      "stateMutability": "view",
      "type": "function"
    },
    {
      "inputs": [],
      "name": "renounceOwnership",
      "outputs": [],
      "stateMutability": "nonpayable",
      "type": "function"
    },
    {
      "inputs": [
        {
          "internalType": "address",
          "name": "_token",
          "type": "address"
        },
        {
          "internalType": "uint256",
          "name": "_amount",
          "type": "uint256"
        }
      ],
      "name": "retrieve",
      "outputs": [],
      "stateMutability": "nonpayable",
      "type": "function"
    },
    {
      "inputs": [
        {
          "internalType": "address",
          "name": "newOwner",
          "type": "address"
        }
      ],
      "name": "transferOwnership",
      "outputs": [],
      "stateMutability": "nonpayable",
      "type": "function"
    }
  ],
  "transactionHash": "0xcd015f5387d312de27de732671bf1a841f03f6312394887e92d67748a3f7b9b7",
  "args": [
    "0xa6318769cEfcAd7454c69bb47D864375ac286e89"
  ],
  "numDeployments": 2,
  "solcInputHash": "10ccea8ac4a16492edf2d1aec78362aa",
  "bytecode": "0x60806040523480156200001157600080fd5b5060405162001b6c38038062001b6c8339818101604052810190620000379190620001d2565b620000576200004b620000ef60201b60201c565b620000f760201b60201c565b806001600080600081111562000096577f4e487b7100000000000000000000000000000000000000000000000000000000600052602160045260246000fd5b60ff1660ff16815260200190815260200160002060006101000a81548173ffffffffffffffffffffffffffffffffffffffff021916908373ffffffffffffffffffffffffffffffffffffffff160217905550506200024c565b600033905090565b60008060009054906101000a900473ffffffffffffffffffffffffffffffffffffffff169050816000806101000a81548173ffffffffffffffffffffffffffffffffffffffff021916908373ffffffffffffffffffffffffffffffffffffffff1602179055508173ffffffffffffffffffffffffffffffffffffffff168173ffffffffffffffffffffffffffffffffffffffff167f8be0079c531659141344cd1fd0a4f28419497f9722a3daafe3b4186f6b6457e060405160405180910390a35050565b600081519050620001cc8162000232565b92915050565b600060208284031215620001e557600080fd5b6000620001f584828501620001bb565b91505092915050565b60006200020b8262000212565b9050919050565b600073ffffffffffffffffffffffffffffffffffffffff82169050919050565b6200023d81620001fe565b81146200024957600080fd5b50565b611910806200025c6000396000f3fe6080604052600436106100555760003560e01c8063715018a61461005a5780638da5cb5b14610071578063b07dc49b1461009c578063c3a2a665146100b8578063e958a77e146100e1578063f2fde38b146100fd575b600080fd5b34801561006657600080fd5b5061006f610126565b005b34801561007d57600080fd5b506100866101ae565b604051610093919061137e565b60405180910390f35b6100b660048036038101906100b19190611121565b6101d7565b005b3480156100c457600080fd5b506100df60048036038101906100da919061102c565b610680565b005b6100fb60048036038101906100f69190611091565b61070b565b005b34801561010957600080fd5b50610124600480360381019061011f9190610fda565b610975565b005b61012e610a6d565b73ffffffffffffffffffffffffffffffffffffffff1661014c6101ae565b73ffffffffffffffffffffffffffffffffffffffff16146101a2576040517f08c379a0000000000000000000000000000000000000000000000000000000008152600401610199906114e3565b60405180910390fd5b6101ac6000610a75565b565b60008060009054906101000a900473ffffffffffffffffffffffffffffffffffffffff16905090565b6101f58360000160208101906101ed9190610fda565b333087610b39565b61022483600001602081019061020b9190610fda565b84604001602081019061021e9190611003565b86610c91565b60008360200160208101906102399190610fda565b73ffffffffffffffffffffffffffffffffffffffff166370a08231306040518263ffffffff1660e01b8152600401610271919061137e565b60206040518083038186803b15801561028957600080fd5b505afa15801561029d573d6000803e3d6000fd5b505050506040513d601f19601f820116820180604052508101906102c191906110f8565b905060008460400160208101906102d89190611003565b73ffffffffffffffffffffffffffffffffffffffff16348680606001906102ff919061158d565b60405161030d92919061134e565b60006040518083038185875af1925050503d806000811461034a576040519150601f19603f3d011682016040523d82523d6000602084013e61034f565b606091505b5050905080610393576040517f08c379a000000000000000000000000000000000000000000000000000000000815260040161038a90611483565b60405180910390fd5b818560200160208101906103a79190610fda565b73ffffffffffffffffffffffffffffffffffffffff166370a08231306040518263ffffffff1660e01b81526004016103df919061137e565b60206040518083038186803b1580156103f757600080fd5b505afa15801561040b573d6000803e3d6000fd5b505050506040513d601f19601f8201168201806040525081019061042f91906110f8565b610439919061161c565b915060006001600080600081111561047a577f4e487b7100000000000000000000000000000000000000000000000000000000600052602160045260246000fd5b60ff1660ff16815260200190815260200160002060009054906101000a900473ffffffffffffffffffffffffffffffffffffffff1690506104ce8460000160208101906104c79190610fda565b8285610c91565b8073ffffffffffffffffffffffffffffffffffffffff1663da1c7e8c8560000160208101906104fd9190610fda565b308760200160208101906105119190610fda565b8789604001358a8060600190610527919061158d565b6040518863ffffffff1660e01b81526004016105499796959493929190611399565b600060405180830381600087803b15801561056357600080fd5b505af1158015610577573d6000803e3d6000fd5b505050503373ffffffffffffffffffffffffffffffffffffffff166108fc479081150290604051600060405180830381858888f193505050501580156105c1573d6000803e3d6000fd5b508360200160208101906105d59190610fda565b73ffffffffffffffffffffffffffffffffffffffff1684604001357f5ef78badbd957879a0891ffc9d843ae28b6aacd3cfa025058f3e52cd029e98c185338960000160208101906106269190610fda565b8a60200160208101906106399190610fda565b8b604001602081019061064c9190611003565b8c806060019061065c919061158d565b60405161066f9796959493929190611523565b60405180910390a350505050505050565b610688610a6d565b73ffffffffffffffffffffffffffffffffffffffff166106a66101ae565b73ffffffffffffffffffffffffffffffffffffffff16146106fc576040517f08c379a00000000000000000000000000000000000000000000000000000000081526004016106f3906114e3565b60405180910390fd5b610707823383610de6565b5050565b61073a8360000160208101906107219190610fda565b8460400160208101906107349190611003565b84610c91565b600083602001602081019061074f9190610fda565b73ffffffffffffffffffffffffffffffffffffffff166370a08231306040518263ffffffff1660e01b8152600401610787919061137e565b60206040518083038186803b15801561079f57600080fd5b505afa1580156107b3573d6000803e3d6000fd5b505050506040513d601f19601f820116820180604052508101906107d791906110f8565b905060008460400160208101906107ee9190611003565b73ffffffffffffffffffffffffffffffffffffffff1634868060600190610815919061158d565b60405161082392919061134e565b60006040518083038185875af1925050503d8060008114610860576040519150601f19603f3d011682016040523d82523d6000602084013e610865565b606091505b50509050806108a9576040517f08c379a00000000000000000000000000000000000000000000000000000000081526004016108a090611483565b60405180910390fd5b818560200160208101906108bd9190610fda565b73ffffffffffffffffffffffffffffffffffffffff166370a08231306040518263ffffffff1660e01b81526004016108f5919061137e565b60206040518083038186803b15801561090d57600080fd5b505afa158015610921573d6000803e3d6000fd5b505050506040513d601f19601f8201168201806040525081019061094591906110f8565b61094f919061161c565b915061096e8560200160208101906109679190610fda565b8484610de6565b5050505050565b61097d610a6d565b73ffffffffffffffffffffffffffffffffffffffff1661099b6101ae565b73ffffffffffffffffffffffffffffffffffffffff16146109f1576040517f08c379a00000000000000000000000000000000000000000000000000000000081526004016109e8906114e3565b60405180910390fd5b600073ffffffffffffffffffffffffffffffffffffffff168173ffffffffffffffffffffffffffffffffffffffff161415610a61576040517f08c379a0000000000000000000000000000000000000000000000000000000008152600401610a58906114a3565b60405180910390fd5b610a6a81610a75565b50565b600033905090565b60008060009054906101000a900473ffffffffffffffffffffffffffffffffffffffff169050816000806101000a81548173ffffffffffffffffffffffffffffffffffffffff021916908373ffffffffffffffffffffffffffffffffffffffff1602179055508173ffffffffffffffffffffffffffffffffffffffff168173ffffffffffffffffffffffffffffffffffffffff167f8be0079c531659141344cd1fd0a4f28419497f9722a3daafe3b4186f6b6457e060405160405180910390a35050565b6000808573ffffffffffffffffffffffffffffffffffffffff166323b872dd60e01b868686604051602401610b7093929190611403565b604051602081830303815290604052907bffffffffffffffffffffffffffffffffffffffffffffffffffffffff19166020820180517bffffffffffffffffffffffffffffffffffffffffffffffffffffffff8381831617835250505050604051610bda9190611367565b6000604051808303816000865af19150503d8060008114610c17576040519150601f19603f3d011682016040523d82523d6000602084013e610c1c565b606091505b5091509150818015610c4a5750600081511480610c49575080806020019051810190610c489190611068565b5b5b610c89576040517f08c379a0000000000000000000000000000000000000000000000000000000008152600401610c8090611503565b60405180910390fd5b505050505050565b6000808473ffffffffffffffffffffffffffffffffffffffff1663095ea7b360e01b8585604051602401610cc692919061143a565b604051602081830303815290604052907bffffffffffffffffffffffffffffffffffffffffffffffffffffffff19166020820180517bffffffffffffffffffffffffffffffffffffffffffffffffffffffff8381831617835250505050604051610d309190611367565b6000604051808303816000865af19150503d8060008114610d6d576040519150601f19603f3d011682016040523d82523d6000602084013e610d72565b606091505b5091509150818015610da05750600081511480610d9f575080806020019051810190610d9e9190611068565b5b5b610ddf576040517f08c379a0000000000000000000000000000000000000000000000000000000008152600401610dd690611463565b60405180910390fd5b5050505050565b6000808473ffffffffffffffffffffffffffffffffffffffff1663a9059cbb60e01b8585604051602401610e1b92919061143a565b604051602081830303815290604052907bffffffffffffffffffffffffffffffffffffffffffffffffffffffff19166020820180517bffffffffffffffffffffffffffffffffffffffffffffffffffffffff8381831617835250505050604051610e859190611367565b6000604051808303816000865af19150503d8060008114610ec2576040519150601f19603f3d011682016040523d82523d6000602084013e610ec7565b606091505b5091509150818015610ef55750600081511480610ef4575080806020019051810190610ef39190611068565b5b5b610f34576040517f08c379a0000000000000000000000000000000000000000000000000000000008152600401610f2b906114c3565b60405180910390fd5b5050505050565b600081359050610f4a8161187e565b92915050565b600081359050610f5f81611895565b92915050565b600081519050610f74816118ac565b92915050565b600060808284031215610f8c57600080fd5b81905092915050565b600060808284031215610fa757600080fd5b81905092915050565b600081359050610fbf816118c3565b92915050565b600081519050610fd4816118c3565b92915050565b600060208284031215610fec57600080fd5b6000610ffa84828501610f3b565b91505092915050565b60006020828403121561101557600080fd5b600061102384828501610f50565b91505092915050565b6000806040838503121561103f57600080fd5b600061104d85828601610f3b565b925050602061105e85828601610fb0565b9150509250929050565b60006020828403121561107a57600080fd5b600061108884828501610f65565b91505092915050565b6000806000606084860312156110a657600080fd5b600084013567ffffffffffffffff8111156110c057600080fd5b6110cc86828701610f95565b93505060206110dd86828701610fb0565b92505060406110ee86828701610f3b565b9150509250925092565b60006020828403121561110a57600080fd5b600061111884828501610fc5565b91505092915050565b6000806000806080858703121561113757600080fd5b600061114587828801610fb0565b945050602085013567ffffffffffffffff81111561116257600080fd5b61116e87828801610f95565b935050604085013567ffffffffffffffff81111561118b57600080fd5b61119787828801610f95565b925050606085013567ffffffffffffffff8111156111b457600080fd5b6111c087828801610f7a565b91505092959194509250565b6111d5816116aa565b82525050565b6111e481611650565b82525050565b60006111f683856115ef565b93506112038385846116e0565b61120c83611751565b840190509392505050565b60006112238385611600565b93506112308385846116e0565b82840190509392505050565b6000611247826115e4565b6112518185611600565b93506112618185602086016116ef565b80840191505092915050565b600061127a60028361160b565b915061128582611762565b602082019050919050565b600061129d600b8361160b565b91506112a88261178b565b602082019050919050565b60006112c060268361160b565b91506112cb826117b4565b604082019050919050565b60006112e360028361160b565b91506112ee82611803565b602082019050919050565b600061130660208361160b565b91506113118261182c565b602082019050919050565b600061132960038361160b565b915061133482611855565b602082019050919050565b611348816116a0565b82525050565b600061135b828486611217565b91508190509392505050565b6000611373828461123c565b915081905092915050565b600060208201905061139360008301846111db565b92915050565b600060c0820190506113ae600083018a6111db565b6113bb60208301896111db565b6113c860408301886111db565b6113d5606083018761133f565b6113e2608083018661133f565b81810360a08301526113f58184866111ea565b905098975050505050505050565b600060608201905061141860008301866111db565b61142560208301856111db565b611432604083018461133f565b949350505050565b600060408201905061144f60008301856111db565b61145c602083018461133f565b9392505050565b6000602082019050818103600083015261147c8161126d565b9050919050565b6000602082019050818103600083015261149c81611290565b9050919050565b600060208201905081810360008301526114bc816112b3565b9050919050565b600060208201905081810360008301526114dc816112d6565b9050919050565b600060208201905081810360008301526114fc816112f9565b9050919050565b6000602082019050818103600083015261151c8161131c565b9050919050565b600060c082019050611538600083018a61133f565b61154560208301896111db565b61155260408301886111db565b61155f60608301876111db565b61156c60808301866111cc565b81810360a083015261157f8184866111ea565b905098975050505050505050565b600080833560016020038436030381126115a657600080fd5b80840192508235915067ffffffffffffffff8211156115c457600080fd5b6020830192506001820236038313156115dc57600080fd5b509250929050565b600081519050919050565b600082825260208201905092915050565b600081905092915050565b600082825260208201905092915050565b6000611627826116a0565b9150611632836116a0565b92508282101561164557611644611722565b5b828203905092915050565b600061165b82611680565b9050919050565b600061166d82611680565b9050919050565b60008115159050919050565b600073ffffffffffffffffffffffffffffffffffffffff82169050919050565b6000819050919050565b60006116b5826116bc565b9050919050565b60006116c7826116ce565b9050919050565b60006116d982611680565b9050919050565b82818337600083830152505050565b60005b8381101561170d5780820151818401526020810190506116f2565b8381111561171c576000848401525b50505050565b7f4e487b7100000000000000000000000000000000000000000000000000000000600052601160045260246000fd5b6000601f19601f8301169050919050565b7f5341000000000000000000000000000000000000000000000000000000000000600082015250565b7f53574150204641494c4544000000000000000000000000000000000000000000600082015250565b7f4f776e61626c653a206e6577206f776e657220697320746865207a65726f206160008201527f6464726573730000000000000000000000000000000000000000000000000000602082015250565b7f5354000000000000000000000000000000000000000000000000000000000000600082015250565b7f4f776e61626c653a2063616c6c6572206973206e6f7420746865206f776e6572600082015250565b7f5354460000000000000000000000000000000000000000000000000000000000600082015250565b61188781611650565b811461189257600080fd5b50565b61189e81611662565b81146118a957600080fd5b50565b6118b581611674565b81146118c057600080fd5b50565b6118cc816116a0565b81146118d757600080fd5b5056fea2646970667358221220b56b2eb2d30b8a2a6b1d4c8497f1b89a3596e087faca66987d6f30f119481f2364736f6c63430008010033",
  "devdoc": {
    "kind": "dev",
    "methods": {
      "constructor": {
        "params": {
          "_anyswapRouterAddress": "Address of the default bridge"
        }
      },
      "initTokensCross(uint256,(address,address,address,bytes),(address,address,address,bytes),(address,address,uint256,bytes))": {
        "details": "This function is executed on the origin chain"
      },
      "owner()": {
        "details": "Returns the address of the current owner."
      },
      "renounceOwnership()": {
        "details": "Leaves the contract without owner. It will not be possible to call `onlyOwner` functions anymore. Can only be called by the current owner. NOTE: Renouncing ownership will leave the contract without an owner, thereby removing any functionality that is only available to the owner."
      },
      "transferOwnership(address)": {
        "details": "Transfers ownership of the contract to a new account (`newOwner`). Can only be called by the current owner."
      }
    },
    "version": 1
  },
  "userdoc": {
    "kind": "user",
    "methods": {
      "finalizeTokenCross((address,address,address,bytes),uint256,address)": {
        "notice": "Finalize the process of swidging"
      },
      "initTokensCross(uint256,(address,address,address,bytes),(address,address,address,bytes),(address,address,uint256,bytes))": {
        "notice": "Init the process of swidging"
      },
      "retrieve(address,uint256)": {
        "notice": "To retrieve any tokens that got stuck on the contract"
      }
    },
    "version": 1
  },
  "storageLayout": {
    "storage": [
      {
        "astId": 7,
        "contract": "contracts/Router.sol:Router",
        "label": "_owner",
        "offset": 0,
        "slot": "0",
        "type": "t_address"
      },
      {
        "astId": 389,
        "contract": "contracts/Router.sol:Router",
        "label": "bridgeProviders",
        "offset": 0,
        "slot": "1",
        "type": "t_mapping(t_uint8,t_contract(IBridge)775)"
      }
    ],
    "types": {
      "t_address": {
        "encoding": "inplace",
        "label": "address",
        "numberOfBytes": "20"
      },
      "t_contract(IBridge)775": {
        "encoding": "inplace",
        "label": "contract IBridge",
        "numberOfBytes": "20"
      },
      "t_mapping(t_uint8,t_contract(IBridge)775)": {
        "encoding": "mapping",
        "key": "t_uint8",
        "label": "mapping(uint8 => contract IBridge)",
        "numberOfBytes": "32",
        "value": "t_contract(IBridge)775"
      },
      "t_uint8": {
        "encoding": "inplace",
        "label": "uint8",
        "numberOfBytes": "1"
      }
    }
  }
}