{
  "address": "0xC5AACb17160019a7Bdd8D0c4922d50f41DbFd9d3",
  "abi": [
    {
      "inputs": [
        {
          "internalType": "address",
          "name": "_anyswapRouterAddress",
          "type": "address"
        },
        {
          "internalType": "address[]",
          "name": "_dexAddresses",
          "type": "address[]"
        },
        {
          "internalType": "enum Router.dexCode[]",
          "name": "_dexCodes",
          "type": "uint8[]"
        }
      ],
      "stateMutability": "nonpayable",
      "type": "constructor"
    },
    {
      "inputs": [
        {
          "internalType": "address",
          "name": "_dstCrossToken",
          "type": "address"
        },
        {
          "internalType": "address",
          "name": "_dstToken",
          "type": "address"
        },
        {
          "internalType": "address",
          "name": "_to",
          "type": "address"
        },
        {
          "internalType": "uint256",
          "name": "_crossAmount",
          "type": "uint256"
        },
        {
          "internalType": "uint256",
          "name": "_toChainId",
          "type": "uint256"
        },
        {
          "internalType": "uint8",
          "name": "_dstDEX",
          "type": "uint8"
        }
      ],
      "name": "finalizeTokenCross",
      "outputs": [],
      "stateMutability": "nonpayable",
      "type": "function"
    },
    {
      "inputs": [
        {
          "internalType": "address",
          "name": "_srcToken",
          "type": "address"
        },
        {
          "internalType": "address",
          "name": "_srcCrossToken",
          "type": "address"
        },
        {
          "internalType": "address",
          "name": "_dstCrossToken",
          "type": "address"
        },
        {
          "internalType": "address",
          "name": "_dstToken",
          "type": "address"
        },
        {
          "internalType": "uint256",
          "name": "_srcAmount",
          "type": "uint256"
        },
        {
          "internalType": "uint256",
          "name": "_toChainId",
          "type": "uint256"
        },
        {
          "internalType": "uint8",
          "name": "_bridge",
          "type": "uint8"
        },
        {
          "internalType": "uint8",
          "name": "_srcDEX",
          "type": "uint8"
        },
        {
          "internalType": "uint8",
          "name": "_dstDEX",
          "type": "uint8"
        }
      ],
      "name": "initTokensCross",
      "outputs": [],
      "stateMutability": "nonpayable",
      "type": "function"
    },
    {
      "inputs": [
        {
          "internalType": "address",
          "name": "_token",
          "type": "address"
        },
        {
          "internalType": "uint256",
          "name": "_amount",
          "type": "uint256"
        }
      ],
      "name": "retrieve",
      "outputs": [],
      "stateMutability": "nonpayable",
      "type": "function"
    }
  ],
  "transactionHash": "0xcdc4ffa2e12066ffe818493851093fc725b850de4ea9f5c7c4a63c3e6e0bf311",
  "args": [
    "0x4f3aff3a747fcade12598081e80c6605a8be192f",
    [
      "0xC2038d36865F2cFeA3be713946E7E13B296Aadf3"
    ],
    [
      0
    ]
  ],
  "numDeployments": 22,
  "solcInputHash": "0f967e7175381b5e3f35de02aa17ebee",
  "bytecode": "0x60806040523480156200001157600080fd5b50604051620012f6380380620012f68339818101604052810190620000379190620003f1565b62000048836200006360201b60201c565b6200005a8282620000a660201b60201c565b5050506200075b565b806000806101000a81548173ffffffffffffffffffffffffffffffffffffffff021916908373ffffffffffffffffffffffffffffffffffffffff16021790555050565b8051825114620000ed576040517f08c379a0000000000000000000000000000000000000000000000000000000008152600401620000e490620004e9565b60405180910390fd5b60008251141562000135576040517f08c379a00000000000000000000000000000000000000000000000000000000081526004016200012c90620004c7565b60405180910390fd5b60005b82518160ff1610156200027a576000838260ff168151811062000184577f4e487b7100000000000000000000000000000000000000000000000000000000600052603260045260246000fd5b602002602001015190508060016000858560ff1681518110620001d0577f4e487b7100000000000000000000000000000000000000000000000000000000600052603260045260246000fd5b6020026020010151600181111562000211577f4e487b7100000000000000000000000000000000000000000000000000000000600052602160045260246000fd5b60ff1660ff16815260200190815260200160002060006101000a81548173ffffffffffffffffffffffffffffffffffffffff021916908373ffffffffffffffffffffffffffffffffffffffff16021790555050808062000271906200061a565b91505062000138565b505050565b600062000296620002908462000534565b6200050b565b90508083825260208201905082856020860282011115620002b657600080fd5b60005b85811015620002ea5781620002cf888262000369565b845260208401935060208301925050600181019050620002b9565b5050509392505050565b60006200030b620003058462000563565b6200050b565b905080838252602082019050828560208602820111156200032b57600080fd5b60005b858110156200035f5781620003448882620003da565b8452602084019350602083019250506001810190506200032e565b5050509392505050565b6000815190506200037a8162000730565b92915050565b600082601f8301126200039257600080fd5b8151620003a48482602086016200027f565b91505092915050565b600082601f830112620003bf57600080fd5b8151620003d1848260208601620002f4565b91505092915050565b600081519050620003eb816200074a565b92915050565b6000806000606084860312156200040757600080fd5b6000620004178682870162000369565b935050602084015167ffffffffffffffff8111156200043557600080fd5b620004438682870162000380565b925050604084015167ffffffffffffffff8111156200046157600080fd5b6200046f86828701620003ad565b9150509250925092565b600062000488601b8362000592565b91506200049582620006b8565b602082019050919050565b6000620004af602c8362000592565b9150620004bc82620006e1565b604082019050919050565b60006020820190508181036000830152620004e28162000479565b9050919050565b600060208201905081810360008301526200050481620004a0565b9050919050565b6000620005176200052a565b9050620005258282620005e4565b919050565b6000604051905090565b600067ffffffffffffffff82111562000552576200055162000678565b5b602082029050602081019050919050565b600067ffffffffffffffff82111562000581576200058062000678565b5b602082029050602081019050919050565b600082825260208201905092915050565b6000620005b082620005b7565b9050919050565b600073ffffffffffffffffffffffffffffffffffffffff82169050919050565b600060ff82169050919050565b620005ef82620006a7565b810181811067ffffffffffffffff8211171562000611576200061062000678565b5b80604052505050565b60006200062782620005d7565b915060ff8214156200063e576200063d62000649565b5b600182019050919050565b7f4e487b7100000000000000000000000000000000000000000000000000000000600052601160045260246000fd5b7f4e487b7100000000000000000000000000000000000000000000000000000000600052604160045260246000fd5b6000601f19601f8301169050919050565b7f4e6f20737761702070726f76696465727320696e666f726d65642e0000000000600082015250565b7f41646472657373657320636f756e742063616e6e6f74206d69736d617463682060008201527f636f64657320636f756e742e0000000000000000000000000000000000000000602082015250565b6200073b81620005a3565b81146200074757600080fd5b50565b600281106200075857600080fd5b50565b610b8b806200076b6000396000f3fe608060405234801561001057600080fd5b50600436106100415760003560e01c80634864177b14610046578063c3a2a66514610062578063ec52d2341461007e575b600080fd5b610060600480360381019061005b919061061e565b61009a565b005b61007c6004803603810190610077919061076d565b61019c565b005b610098600480360381019061009391906106e4565b6101ab565b005b6100a6893330886101b3565b6000600160008460ff1660ff16815260200190815260200160002060009054906101000a900473ffffffffffffffffffffffffffffffffffffffff1690506100ef8a828861030b565b60008173ffffffffffffffffffffffffffffffffffffffff1663a9678a188c8c308b6040518563ffffffff1660e01b815260040161013094939291906108ca565b602060405180830381600087803b15801561014a57600080fd5b505af115801561015e573d6000803e3d6000fd5b505050506040513d601f19601f8201168201806040525081019061018291906107d2565b905061018f8a3383610460565b5050505050505050505050565b6101a7823383610460565b5050565b505050505050565b6000808573ffffffffffffffffffffffffffffffffffffffff166323b872dd60e01b8686866040516024016101ea9392919061090f565b604051602081830303815290604052907bffffffffffffffffffffffffffffffffffffffffffffffffffffffff19166020820180517bffffffffffffffffffffffffffffffffffffffffffffffffffffffff838183161783525050505060405161025491906108b3565b6000604051808303816000865af19150503d8060008114610291576040519150601f19603f3d011682016040523d82523d6000602084013e610296565b606091505b50915091508180156102c457506000815114806102c35750808060200190518101906102c291906107a9565b5b5b610303576040517f08c379a00000000000000000000000000000000000000000000000000000000081526004016102fa906109af565b60405180910390fd5b505050505050565b6000808473ffffffffffffffffffffffffffffffffffffffff1663095ea7b360e01b8585604051602401610340929190610946565b604051602081830303815290604052907bffffffffffffffffffffffffffffffffffffffffffffffffffffffff19166020820180517bffffffffffffffffffffffffffffffffffffffffffffffffffffffff83818316178352505050506040516103aa91906108b3565b6000604051808303816000865af19150503d80600081146103e7576040519150601f19603f3d011682016040523d82523d6000602084013e6103ec565b606091505b509150915081801561041a575060008151148061041957508080602001905181019061041891906107a9565b5b5b610459576040517f08c379a00000000000000000000000000000000000000000000000000000000081526004016104509061096f565b60405180910390fd5b5050505050565b6000808473ffffffffffffffffffffffffffffffffffffffff1663a9059cbb60e01b8585604051602401610495929190610946565b604051602081830303815290604052907bffffffffffffffffffffffffffffffffffffffffffffffffffffffff19166020820180517bffffffffffffffffffffffffffffffffffffffffffffffffffffffff83818316178352505050506040516104ff91906108b3565b6000604051808303816000865af19150503d806000811461053c576040519150601f19603f3d011682016040523d82523d6000602084013e610541565b606091505b509150915081801561056f575060008151148061056e57508080602001905181019061056d91906107a9565b5b5b6105ae576040517f08c379a00000000000000000000000000000000000000000000000000000000081526004016105a59061098f565b60405180910390fd5b5050505050565b6000813590506105c481610af9565b92915050565b6000815190506105d981610b10565b92915050565b6000813590506105ee81610b27565b92915050565b60008151905061060381610b27565b92915050565b60008135905061061881610b3e565b92915050565b60008060008060008060008060006101208a8c03121561063d57600080fd5b600061064b8c828d016105b5565b995050602061065c8c828d016105b5565b985050604061066d8c828d016105b5565b975050606061067e8c828d016105b5565b965050608061068f8c828d016105df565b95505060a06106a08c828d016105df565b94505060c06106b18c828d01610609565b93505060e06106c28c828d01610609565b9250506101006106d48c828d01610609565b9150509295985092959850929598565b60008060008060008060c087890312156106fd57600080fd5b600061070b89828a016105b5565b965050602061071c89828a016105b5565b955050604061072d89828a016105b5565b945050606061073e89828a016105df565b935050608061074f89828a016105df565b92505060a061076089828a01610609565b9150509295509295509295565b6000806040838503121561078057600080fd5b600061078e858286016105b5565b925050602061079f858286016105df565b9150509250929050565b6000602082840312156107bb57600080fd5b60006107c9848285016105ca565b91505092915050565b6000602082840312156107e457600080fd5b60006107f2848285016105f4565b91505092915050565b610804816109f6565b82525050565b6000610815826109cf565b61081f81856109da565b935061082f818560208601610a4b565b80840191505092915050565b60006108486002836109e5565b915061085382610a7e565b602082019050919050565b600061086b6002836109e5565b915061087682610aa7565b602082019050919050565b600061088e6003836109e5565b915061089982610ad0565b602082019050919050565b6108ad81610a34565b82525050565b60006108bf828461080a565b915081905092915050565b60006080820190506108df60008301876107fb565b6108ec60208301866107fb565b6108f960408301856107fb565b61090660608301846108a4565b95945050505050565b600060608201905061092460008301866107fb565b61093160208301856107fb565b61093e60408301846108a4565b949350505050565b600060408201905061095b60008301856107fb565b61096860208301846108a4565b9392505050565b600060208201905081810360008301526109888161083b565b9050919050565b600060208201905081810360008301526109a88161085e565b9050919050565b600060208201905081810360008301526109c881610881565b9050919050565b600081519050919050565b600081905092915050565b600082825260208201905092915050565b6000610a0182610a14565b9050919050565b60008115159050919050565b600073ffffffffffffffffffffffffffffffffffffffff82169050919050565b6000819050919050565b600060ff82169050919050565b60005b83811015610a69578082015181840152602081019050610a4e565b83811115610a78576000848401525b50505050565b7f5341000000000000000000000000000000000000000000000000000000000000600082015250565b7f5354000000000000000000000000000000000000000000000000000000000000600082015250565b7f5354460000000000000000000000000000000000000000000000000000000000600082015250565b610b02816109f6565b8114610b0d57600080fd5b50565b610b1981610a08565b8114610b2457600080fd5b50565b610b3081610a34565b8114610b3b57600080fd5b50565b610b4781610a3e565b8114610b5257600080fd5b5056fea2646970667358221220f0e6257c7f4c317f4ac337608a17c903bf8d1b6bf34269828295a7d39f3cf6d364736f6c63430008010033",
  "devdoc": {
    "kind": "dev",
    "methods": {
      "constructor": {
        "params": {
          "_anyswapRouterAddress": "Address of the default bridge",
          "_dexAddresses": "Array of DEX addresses",
          "_dexCodes": "Array of DEX identifiers"
        }
      },
      "initTokensCross(address,address,address,address,uint256,uint256,uint8,uint8,uint8)": {
        "details": "This function is executed on the origin chain",
        "params": {
          "_dstCrossToken": "Address of the token that will arrive to the destination chain",
          "_dstDEX": "Identifier of the exchange to use on the destination chain",
          "_dstToken": "Address of the token the user wants to receive on destination",
          "_srcAmount": "Amount of source tokens that user wants to move",
          "_srcCrossToken": "Address of the token we will swap on origin chain to send to the bridge",
          "_srcDEX": "Identifier of the exchange to use on the origin chain",
          "_srcToken": "Address of the token the user wants to swidge",
          "_toChainId": "Chain identifier that the user wants its token to receive"
        }
      }
    },
    "version": 1
  },
  "userdoc": {
    "kind": "user",
    "methods": {
      "finalizeTokenCross(address,address,address,uint256,uint256,uint8)": {
        "notice": "Finalize the process of swidging"
      },
      "initTokensCross(address,address,address,address,uint256,uint256,uint8,uint8,uint8)": {
        "notice": "Init the process of swidging"
      },
      "retrieve(address,uint256)": {
        "notice": "To retrieve any tokens that got stuck on the contract"
      }
    },
    "version": 1
  },
  "storageLayout": {
    "storage": [
      {
        "astId": 383,
        "contract": "contracts/Router.sol:Router",
        "label": "bridge",
        "offset": 0,
        "slot": "0",
        "type": "t_contract(AnyswapRouter)380"
      },
      {
        "astId": 388,
        "contract": "contracts/Router.sol:Router",
        "label": "swapProviders",
        "offset": 0,
        "slot": "1",
        "type": "t_mapping(t_uint8,t_contract(IDEX)622)"
      }
    ],
    "types": {
      "t_contract(AnyswapRouter)380": {
        "encoding": "inplace",
        "label": "contract AnyswapRouter",
        "numberOfBytes": "20"
      },
      "t_contract(IDEX)622": {
        "encoding": "inplace",
        "label": "contract IDEX",
        "numberOfBytes": "20"
      },
      "t_mapping(t_uint8,t_contract(IDEX)622)": {
        "encoding": "mapping",
        "key": "t_uint8",
        "label": "mapping(uint8 => contract IDEX)",
        "numberOfBytes": "32",
        "value": "t_contract(IDEX)622"
      },
      "t_uint8": {
        "encoding": "inplace",
        "label": "uint8",
        "numberOfBytes": "1"
      }
    }
  }
}