{
  "address": "0x1b42b12e3d6117a012310FAb8AC380ce50d1Cf37",
  "abi": [
    {
      "inputs": [
        {
          "internalType": "address",
          "name": "_anyswapRouterAddress",
          "type": "address"
        },
        {
          "internalType": "address[]",
          "name": "_dexAddresses",
          "type": "address[]"
        },
        {
          "internalType": "enum Router.dexCode[]",
          "name": "_dexCodes",
          "type": "uint8[]"
        }
      ],
      "stateMutability": "nonpayable",
      "type": "constructor"
    },
    {
      "inputs": [
        {
          "internalType": "address",
          "name": "_dstCrossToken",
          "type": "address"
        },
        {
          "internalType": "address",
          "name": "_dstToken",
          "type": "address"
        },
        {
          "internalType": "address",
          "name": "_to",
          "type": "address"
        },
        {
          "internalType": "uint256",
          "name": "_crossAmount",
          "type": "uint256"
        },
        {
          "internalType": "uint256",
          "name": "_toChainId",
          "type": "uint256"
        },
        {
          "internalType": "uint8",
          "name": "_dstDEX",
          "type": "uint8"
        }
      ],
      "name": "finalizeTokenCross",
      "outputs": [],
      "stateMutability": "nonpayable",
      "type": "function"
    },
    {
      "inputs": [
        {
          "internalType": "address",
          "name": "_srcToken",
          "type": "address"
        },
        {
          "internalType": "address",
          "name": "_srcCrossToken",
          "type": "address"
        },
        {
          "internalType": "address",
          "name": "_dstCrossToken",
          "type": "address"
        },
        {
          "internalType": "address",
          "name": "_dstToken",
          "type": "address"
        },
        {
          "internalType": "uint256",
          "name": "_srcAmount",
          "type": "uint256"
        },
        {
          "internalType": "uint256",
          "name": "_toChainId",
          "type": "uint256"
        },
        {
          "internalType": "uint8",
          "name": "_bridge",
          "type": "uint8"
        },
        {
          "internalType": "uint8",
          "name": "_srcDEX",
          "type": "uint8"
        },
        {
          "internalType": "uint8",
          "name": "_dstDEX",
          "type": "uint8"
        }
      ],
      "name": "initTokensCross",
      "outputs": [],
      "stateMutability": "nonpayable",
      "type": "function"
    },
    {
      "inputs": [
        {
          "internalType": "address",
          "name": "_token",
          "type": "address"
        },
        {
          "internalType": "uint256",
          "name": "_amount",
          "type": "uint256"
        }
      ],
      "name": "retrieve",
      "outputs": [],
      "stateMutability": "nonpayable",
      "type": "function"
    }
  ],
  "transactionHash": "0x3064c73f5e1b8ad2c34e0a9ff65a16bd64f7d88e3eef962af82ca459ad729cdf",
  "args": [
    "0x4f3aff3a747fcade12598081e80c6605a8be192f",
    [
      "0xC2038d36865F2cFeA3be713946E7E13B296Aadf3"
    ],
    [
      0
    ]
  ],
  "numDeployments": 26,
  "solcInputHash": "68b3b6dbdf589964bbb89c0d61d7be6e",
  "bytecode": "0x60806040523480156200001157600080fd5b5060405162001289380380620012898339818101604052810190620000379190620003f1565b62000048836200006360201b60201c565b6200005a8282620000a660201b60201c565b5050506200075b565b806000806101000a81548173ffffffffffffffffffffffffffffffffffffffff021916908373ffffffffffffffffffffffffffffffffffffffff16021790555050565b8051825114620000ed576040517f08c379a0000000000000000000000000000000000000000000000000000000008152600401620000e490620004e9565b60405180910390fd5b60008251141562000135576040517f08c379a00000000000000000000000000000000000000000000000000000000081526004016200012c90620004c7565b60405180910390fd5b60005b82518160ff1610156200027a576000838260ff168151811062000184577f4e487b7100000000000000000000000000000000000000000000000000000000600052603260045260246000fd5b602002602001015190508060016000858560ff1681518110620001d0577f4e487b7100000000000000000000000000000000000000000000000000000000600052603260045260246000fd5b6020026020010151600181111562000211577f4e487b7100000000000000000000000000000000000000000000000000000000600052602160045260246000fd5b60ff1660ff16815260200190815260200160002060006101000a81548173ffffffffffffffffffffffffffffffffffffffff021916908373ffffffffffffffffffffffffffffffffffffffff16021790555050808062000271906200061a565b91505062000138565b505050565b600062000296620002908462000534565b6200050b565b90508083825260208201905082856020860282011115620002b657600080fd5b60005b85811015620002ea5781620002cf888262000369565b845260208401935060208301925050600181019050620002b9565b5050509392505050565b60006200030b620003058462000563565b6200050b565b905080838252602082019050828560208602820111156200032b57600080fd5b60005b858110156200035f5781620003448882620003da565b8452602084019350602083019250506001810190506200032e565b5050509392505050565b6000815190506200037a8162000730565b92915050565b600082601f8301126200039257600080fd5b8151620003a48482602086016200027f565b91505092915050565b600082601f830112620003bf57600080fd5b8151620003d1848260208601620002f4565b91505092915050565b600081519050620003eb816200074a565b92915050565b6000806000606084860312156200040757600080fd5b6000620004178682870162000369565b935050602084015167ffffffffffffffff8111156200043557600080fd5b620004438682870162000380565b925050604084015167ffffffffffffffff8111156200046157600080fd5b6200046f86828701620003ad565b9150509250925092565b600062000488601b8362000592565b91506200049582620006b8565b602082019050919050565b6000620004af602c8362000592565b9150620004bc82620006e1565b604082019050919050565b60006020820190508181036000830152620004e28162000479565b9050919050565b600060208201905081810360008301526200050481620004a0565b9050919050565b6000620005176200052a565b9050620005258282620005e4565b919050565b6000604051905090565b600067ffffffffffffffff82111562000552576200055162000678565b5b602082029050602081019050919050565b600067ffffffffffffffff82111562000581576200058062000678565b5b602082029050602081019050919050565b600082825260208201905092915050565b6000620005b082620005b7565b9050919050565b600073ffffffffffffffffffffffffffffffffffffffff82169050919050565b600060ff82169050919050565b620005ef82620006a7565b810181811067ffffffffffffffff8211171562000611576200061062000678565b5b80604052505050565b60006200062782620005d7565b915060ff8214156200063e576200063d62000649565b5b600182019050919050565b7f4e487b7100000000000000000000000000000000000000000000000000000000600052601160045260246000fd5b7f4e487b7100000000000000000000000000000000000000000000000000000000600052604160045260246000fd5b6000601f19601f8301169050919050565b7f4e6f20737761702070726f76696465727320696e666f726d65642e0000000000600082015250565b7f41646472657373657320636f756e742063616e6e6f74206d69736d617463682060008201527f636f64657320636f756e742e0000000000000000000000000000000000000000602082015250565b6200073b81620005a3565b81146200074757600080fd5b50565b600281106200075857600080fd5b50565b610b1e806200076b6000396000f3fe608060405234801561001057600080fd5b50600436106100415760003560e01c80634864177b14610046578063c3a2a66514610062578063ec52d2341461007e575b600080fd5b610060600480360381019061005b91906105da565b61009a565b005b61007c60048036038101906100779190610729565b61016d565b005b610098600480360381019061009391906106a0565b61017c565b005b6100a689333088610184565b6100d18960008054906101000a900473ffffffffffffffffffffffffffffffffffffffff16876102dc565b60008054906101000a900473ffffffffffffffffffffffffffffffffffffffff1673ffffffffffffffffffffffffffffffffffffffff1663edbdf5e2893388886040518563ffffffff1660e01b81526004016101309493929190610894565b600060405180830381600087803b15801561014a57600080fd5b505af115801561015e573d6000803e3d6000fd5b50505050505050505050505050565b610178823383610431565b5050565b505050505050565b6000808573ffffffffffffffffffffffffffffffffffffffff166323b872dd60e01b8686866040516024016101bb9392919061085d565b604051602081830303815290604052907bffffffffffffffffffffffffffffffffffffffffffffffffffffffff19166020820180517bffffffffffffffffffffffffffffffffffffffffffffffffffffffff83818316178352505050506040516102259190610846565b6000604051808303816000865af19150503d8060008114610262576040519150601f19603f3d011682016040523d82523d6000602084013e610267565b606091505b509150915081801561029557506000815114806102945750808060200190518101906102939190610765565b5b5b6102d4576040517f08c379a00000000000000000000000000000000000000000000000000000000081526004016102cb90610942565b60405180910390fd5b505050505050565b6000808473ffffffffffffffffffffffffffffffffffffffff1663095ea7b360e01b85856040516024016103119291906108d9565b604051602081830303815290604052907bffffffffffffffffffffffffffffffffffffffffffffffffffffffff19166020820180517bffffffffffffffffffffffffffffffffffffffffffffffffffffffff838183161783525050505060405161037b9190610846565b6000604051808303816000865af19150503d80600081146103b8576040519150601f19603f3d011682016040523d82523d6000602084013e6103bd565b606091505b50915091508180156103eb57506000815114806103ea5750808060200190518101906103e99190610765565b5b5b61042a576040517f08c379a000000000000000000000000000000000000000000000000000000000815260040161042190610902565b60405180910390fd5b5050505050565b6000808473ffffffffffffffffffffffffffffffffffffffff1663a9059cbb60e01b85856040516024016104669291906108d9565b604051602081830303815290604052907bffffffffffffffffffffffffffffffffffffffffffffffffffffffff19166020820180517bffffffffffffffffffffffffffffffffffffffffffffffffffffffff83818316178352505050506040516104d09190610846565b6000604051808303816000865af19150503d806000811461050d576040519150601f19603f3d011682016040523d82523d6000602084013e610512565b606091505b5091509150818015610540575060008151148061053f57508080602001905181019061053e9190610765565b5b5b61057f576040517f08c379a000000000000000000000000000000000000000000000000000000000815260040161057690610922565b60405180910390fd5b5050505050565b60008135905061059581610a8c565b92915050565b6000815190506105aa81610aa3565b92915050565b6000813590506105bf81610aba565b92915050565b6000813590506105d481610ad1565b92915050565b60008060008060008060008060006101208a8c0312156105f957600080fd5b60006106078c828d01610586565b99505060206106188c828d01610586565b98505060406106298c828d01610586565b975050606061063a8c828d01610586565b965050608061064b8c828d016105b0565b95505060a061065c8c828d016105b0565b94505060c061066d8c828d016105c5565b93505060e061067e8c828d016105c5565b9250506101006106908c828d016105c5565b9150509295985092959850929598565b60008060008060008060c087890312156106b957600080fd5b60006106c789828a01610586565b96505060206106d889828a01610586565b95505060406106e989828a01610586565b94505060606106fa89828a016105b0565b935050608061070b89828a016105b0565b92505060a061071c89828a016105c5565b9150509295509295509295565b6000806040838503121561073c57600080fd5b600061074a85828601610586565b925050602061075b858286016105b0565b9150509250929050565b60006020828403121561077757600080fd5b60006107858482850161059b565b91505092915050565b61079781610989565b82525050565b60006107a882610962565b6107b2818561096d565b93506107c28185602086016109de565b80840191505092915050565b60006107db600283610978565b91506107e682610a11565b602082019050919050565b60006107fe600283610978565b915061080982610a3a565b602082019050919050565b6000610821600383610978565b915061082c82610a63565b602082019050919050565b610840816109c7565b82525050565b6000610852828461079d565b915081905092915050565b6000606082019050610872600083018661078e565b61087f602083018561078e565b61088c6040830184610837565b949350505050565b60006080820190506108a9600083018761078e565b6108b6602083018661078e565b6108c36040830185610837565b6108d06060830184610837565b95945050505050565b60006040820190506108ee600083018561078e565b6108fb6020830184610837565b9392505050565b6000602082019050818103600083015261091b816107ce565b9050919050565b6000602082019050818103600083015261093b816107f1565b9050919050565b6000602082019050818103600083015261095b81610814565b9050919050565b600081519050919050565b600081905092915050565b600082825260208201905092915050565b6000610994826109a7565b9050919050565b60008115159050919050565b600073ffffffffffffffffffffffffffffffffffffffff82169050919050565b6000819050919050565b600060ff82169050919050565b60005b838110156109fc5780820151818401526020810190506109e1565b83811115610a0b576000848401525b50505050565b7f5341000000000000000000000000000000000000000000000000000000000000600082015250565b7f5354000000000000000000000000000000000000000000000000000000000000600082015250565b7f5354460000000000000000000000000000000000000000000000000000000000600082015250565b610a9581610989565b8114610aa057600080fd5b50565b610aac8161099b565b8114610ab757600080fd5b50565b610ac3816109c7565b8114610ace57600080fd5b50565b610ada816109d1565b8114610ae557600080fd5b5056fea26469706673582212203b50ceeafb1c4aeab68e2b9f5dca1c08fe96a4c0ced13d930e5620ab566241c464736f6c63430008010033",
  "devdoc": {
    "kind": "dev",
    "methods": {
      "constructor": {
        "params": {
          "_anyswapRouterAddress": "Address of the default bridge",
          "_dexAddresses": "Array of DEX addresses",
          "_dexCodes": "Array of DEX identifiers"
        }
      },
      "initTokensCross(address,address,address,address,uint256,uint256,uint8,uint8,uint8)": {
        "details": "This function is executed on the origin chain",
        "params": {
          "_dstCrossToken": "Address of the token that will arrive to the destination chain",
          "_dstDEX": "Identifier of the exchange to use on the destination chain",
          "_dstToken": "Address of the token the user wants to receive on destination",
          "_srcAmount": "Amount of source tokens that user wants to move",
          "_srcCrossToken": "Address of the token we will swap on origin chain to send to the bridge",
          "_srcDEX": "Identifier of the exchange to use on the origin chain",
          "_srcToken": "Address of the token the user wants to swidge",
          "_toChainId": "Chain identifier that the user wants its token to receive"
        }
      }
    },
    "version": 1
  },
  "userdoc": {
    "kind": "user",
    "methods": {
      "finalizeTokenCross(address,address,address,uint256,uint256,uint8)": {
        "notice": "Finalize the process of swidging"
      },
      "initTokensCross(address,address,address,address,uint256,uint256,uint8,uint8,uint8)": {
        "notice": "Init the process of swidging"
      },
      "retrieve(address,uint256)": {
        "notice": "To retrieve any tokens that got stuck on the contract"
      }
    },
    "version": 1
  },
  "storageLayout": {
    "storage": [
      {
        "astId": 268,
        "contract": "contracts/Router.sol:Router",
        "label": "bridge",
        "offset": 0,
        "slot": "0",
        "type": "t_contract(AnyswapRouter)265"
      },
      {
        "astId": 273,
        "contract": "contracts/Router.sol:Router",
        "label": "swapProviders",
        "offset": 0,
        "slot": "1",
        "type": "t_mapping(t_uint8,t_contract(IDEX)488)"
      }
    ],
    "types": {
      "t_contract(AnyswapRouter)265": {
        "encoding": "inplace",
        "label": "contract AnyswapRouter",
        "numberOfBytes": "20"
      },
      "t_contract(IDEX)488": {
        "encoding": "inplace",
        "label": "contract IDEX",
        "numberOfBytes": "20"
      },
      "t_mapping(t_uint8,t_contract(IDEX)488)": {
        "encoding": "mapping",
        "key": "t_uint8",
        "label": "mapping(uint8 => contract IDEX)",
        "numberOfBytes": "32",
        "value": "t_contract(IDEX)488"
      },
      "t_uint8": {
        "encoding": "inplace",
        "label": "uint8",
        "numberOfBytes": "1"
      }
    }
  }
}