{
  "address": "0x474587fa0346F0971162b36a0346584Ff745B9c6",
  "abi": [
    {
      "inputs": [
        {
          "internalType": "address",
          "name": "_anyswapRouterAddress",
          "type": "address"
        }
      ],
      "stateMutability": "nonpayable",
      "type": "constructor"
    },
    {
      "anonymous": false,
      "inputs": [
        {
          "indexed": false,
          "internalType": "uint256",
          "name": "amount",
          "type": "uint256"
        },
        {
          "indexed": true,
          "internalType": "uint256",
          "name": "toChainId",
          "type": "uint256"
        },
        {
          "indexed": true,
          "internalType": "address",
          "name": "router",
          "type": "address"
        },
        {
          "indexed": false,
          "internalType": "address",
          "name": "dstTokenIn",
          "type": "address"
        },
        {
          "indexed": false,
          "internalType": "address",
          "name": "dstTokenOut",
          "type": "address"
        },
        {
          "indexed": false,
          "internalType": "address",
          "name": "maker",
          "type": "address"
        },
        {
          "indexed": false,
          "internalType": "bytes",
          "name": "data",
          "type": "bytes"
        }
      ],
      "name": "CrossInitiated",
      "type": "event"
    },
    {
      "inputs": [
        {
          "internalType": "address",
          "name": "_dstCrossToken",
          "type": "address"
        },
        {
          "internalType": "address",
          "name": "_dstToken",
          "type": "address"
        },
        {
          "internalType": "address",
          "name": "_to",
          "type": "address"
        },
        {
          "internalType": "uint256",
          "name": "_crossAmount",
          "type": "uint256"
        },
        {
          "internalType": "uint256",
          "name": "_toChainId",
          "type": "uint256"
        },
        {
          "internalType": "uint8",
          "name": "_dstDEX",
          "type": "uint8"
        }
      ],
      "name": "finalizeTokenCross",
      "outputs": [],
      "stateMutability": "nonpayable",
      "type": "function"
    },
    {
      "inputs": [
        {
          "internalType": "uint256",
          "name": "_srcAmount",
          "type": "uint256"
        },
        {
          "components": [
            {
              "internalType": "address",
              "name": "tokenIn",
              "type": "address"
            },
            {
              "internalType": "address",
              "name": "tokenOut",
              "type": "address"
            },
            {
              "internalType": "address payable",
              "name": "callAddress",
              "type": "address"
            },
            {
              "internalType": "bytes",
              "name": "callData",
              "type": "bytes"
            }
          ],
          "internalType": "struct Router.SwapData",
          "name": "_srcSwapData",
          "type": "tuple"
        },
        {
          "components": [
            {
              "internalType": "address",
              "name": "tokenIn",
              "type": "address"
            },
            {
              "internalType": "address",
              "name": "tokenOut",
              "type": "address"
            },
            {
              "internalType": "address payable",
              "name": "callAddress",
              "type": "address"
            },
            {
              "internalType": "bytes",
              "name": "callData",
              "type": "bytes"
            }
          ],
          "internalType": "struct Router.SwapData",
          "name": "_dstSwapData",
          "type": "tuple"
        },
        {
          "components": [
            {
              "internalType": "address",
              "name": "tokenIn",
              "type": "address"
            },
            {
              "internalType": "address",
              "name": "receiverAddress",
              "type": "address"
            },
            {
              "internalType": "uint256",
              "name": "toChainId",
              "type": "uint256"
            },
            {
              "internalType": "bytes",
              "name": "data",
              "type": "bytes"
            }
          ],
          "internalType": "struct Router.BridgeData",
          "name": "_bridgeData",
          "type": "tuple"
        }
      ],
      "name": "initTokensCross",
      "outputs": [],
      "stateMutability": "payable",
      "type": "function"
    },
    {
      "inputs": [
        {
          "internalType": "address",
          "name": "_token",
          "type": "address"
        },
        {
          "internalType": "uint256",
          "name": "_amount",
          "type": "uint256"
        }
      ],
      "name": "retrieve",
      "outputs": [],
      "stateMutability": "nonpayable",
      "type": "function"
    }
  ],
  "transactionHash": "0x5d3c7e8778c814bb7b572f5f09d8db8c0932fa2ca39e5359290f4607d71de0e0",
  "args": [
    "0xa6318769cEfcAd7454c69bb47D864375ac286e89"
  ],
  "numDeployments": 1,
  "solcInputHash": "fdf3e66e17286719528854b57f7ca9f9",
  "bytecode": "0x60806040523480156200001157600080fd5b50604051620013f9380380620013f98339818101604052810190620000379190620000e5565b8060008080600081111562000075577f4e487b7100000000000000000000000000000000000000000000000000000000600052602160045260246000fd5b60ff1660ff16815260200190815260200160002060006101000a81548173ffffffffffffffffffffffffffffffffffffffff021916908373ffffffffffffffffffffffffffffffffffffffff160217905550506200015f565b600081519050620000df8162000145565b92915050565b600060208284031215620000f857600080fd5b60006200010884828501620000ce565b91505092915050565b60006200011e8262000125565b9050919050565b600073ffffffffffffffffffffffffffffffffffffffff82169050919050565b620001508162000111565b81146200015c57600080fd5b50565b61128a806200016f6000396000f3fe6080604052600436106100345760003560e01c8063b07dc49b14610039578063c3a2a66514610055578063ec52d2341461007e575b600080fd5b610053600480360381019061004e9190610b83565b6100a7565b005b34801561006157600080fd5b5061007c60048036038101906100779190610af5565b61054d565b005b34801561008a57600080fd5b506100a560048036038101906100a09190610a6c565b61055c565b005b6100c58360000160208101906100bd9190610a1a565b333087610564565b6100f48360000160208101906100db9190610a1a565b8460400160208101906100ee9190610a43565b866106bc565b60008360200160208101906101099190610a1a565b73ffffffffffffffffffffffffffffffffffffffff166370a08231306040518263ffffffff1660e01b81526004016101419190610d9a565b60206040518083038186803b15801561015957600080fd5b505afa15801561016d573d6000803e3d6000fd5b505050506040513d601f19601f820116820180604052508101906101919190610b5a565b905060008460400160208101906101a89190610a43565b73ffffffffffffffffffffffffffffffffffffffff16348680606001906101cf9190610f5b565b6040516101dd929190610d6a565b60006040518083038185875af1925050503d806000811461021a576040519150601f19603f3d011682016040523d82523d6000602084013e61021f565b606091505b5050905080610263576040517f08c379a000000000000000000000000000000000000000000000000000000000815260040161025a90610e9f565b60405180910390fd5b818560200160208101906102779190610a1a565b73ffffffffffffffffffffffffffffffffffffffff166370a08231306040518263ffffffff1660e01b81526004016102af9190610d9a565b60206040518083038186803b1580156102c757600080fd5b505afa1580156102db573d6000803e3d6000fd5b505050506040513d601f19601f820116820180604052508101906102ff9190610b5a565b6103099190610fea565b91506000806000806000811115610349577f4e487b7100000000000000000000000000000000000000000000000000000000600052602160045260246000fd5b60ff1660ff16815260200190815260200160002060009054906101000a900473ffffffffffffffffffffffffffffffffffffffff16905061039d8460000160208101906103969190610a1a565b82856106bc565b8073ffffffffffffffffffffffffffffffffffffffff1663da1c7e8c8560000160208101906103cc9190610a1a565b308760200160208101906103e09190610a1a565b8789604001358a80606001906103f69190610f5b565b6040518863ffffffff1660e01b81526004016104189796959493929190610db5565b600060405180830381600087803b15801561043257600080fd5b505af1158015610446573d6000803e3d6000fd5b505050503373ffffffffffffffffffffffffffffffffffffffff166108fc479081150290604051600060405180830381858888f19350505050158015610490573d6000803e3d6000fd5b508360200160208101906104a49190610a1a565b73ffffffffffffffffffffffffffffffffffffffff1684604001357f0b737671bd385ef5037921d101c15434519b4c49d42afb9861cbbf022944e2fe858860000160208101906104f49190610a1a565b8960200160208101906105079190610a1a565b8a604001602081019061051a9190610a43565b8b806060019061052a9190610f5b565b60405161053c96959493929190610eff565b60405180910390a350505050505050565b610558823383610811565b5050565b505050505050565b6000808573ffffffffffffffffffffffffffffffffffffffff166323b872dd60e01b86868660405160240161059b93929190610e1f565b604051602081830303815290604052907bffffffffffffffffffffffffffffffffffffffffffffffffffffffff19166020820180517bffffffffffffffffffffffffffffffffffffffffffffffffffffffff83818316178352505050506040516106059190610d83565b6000604051808303816000865af19150503d8060008114610642576040519150601f19603f3d011682016040523d82523d6000602084013e610647565b606091505b509150915081801561067557506000815114806106745750808060200190518101906106739190610b31565b5b5b6106b4576040517f08c379a00000000000000000000000000000000000000000000000000000000081526004016106ab90610edf565b60405180910390fd5b505050505050565b6000808473ffffffffffffffffffffffffffffffffffffffff1663095ea7b360e01b85856040516024016106f1929190610e56565b604051602081830303815290604052907bffffffffffffffffffffffffffffffffffffffffffffffffffffffff19166020820180517bffffffffffffffffffffffffffffffffffffffffffffffffffffffff838183161783525050505060405161075b9190610d83565b6000604051808303816000865af19150503d8060008114610798576040519150601f19603f3d011682016040523d82523d6000602084013e61079d565b606091505b50915091508180156107cb57506000815114806107ca5750808060200190518101906107c99190610b31565b5b5b61080a576040517f08c379a000000000000000000000000000000000000000000000000000000000815260040161080190610e7f565b60405180910390fd5b5050505050565b6000808473ffffffffffffffffffffffffffffffffffffffff1663a9059cbb60e01b8585604051602401610846929190610e56565b604051602081830303815290604052907bffffffffffffffffffffffffffffffffffffffffffffffffffffffff19166020820180517bffffffffffffffffffffffffffffffffffffffffffffffffffffffff83818316178352505050506040516108b09190610d83565b6000604051808303816000865af19150503d80600081146108ed576040519150601f19603f3d011682016040523d82523d6000602084013e6108f2565b606091505b5091509150818015610920575060008151148061091f57508080602001905181019061091e9190610b31565b5b5b61095f576040517f08c379a000000000000000000000000000000000000000000000000000000000815260040161095690610ebf565b60405180910390fd5b5050505050565b600081359050610975816111e1565b92915050565b60008135905061098a816111f8565b92915050565b60008151905061099f8161120f565b92915050565b6000608082840312156109b757600080fd5b81905092915050565b6000608082840312156109d257600080fd5b81905092915050565b6000813590506109ea81611226565b92915050565b6000815190506109ff81611226565b92915050565b600081359050610a148161123d565b92915050565b600060208284031215610a2c57600080fd5b6000610a3a84828501610966565b91505092915050565b600060208284031215610a5557600080fd5b6000610a638482850161097b565b91505092915050565b60008060008060008060c08789031215610a8557600080fd5b6000610a9389828a01610966565b9650506020610aa489828a01610966565b9550506040610ab589828a01610966565b9450506060610ac689828a016109db565b9350506080610ad789828a016109db565b92505060a0610ae889828a01610a05565b9150509295509295509295565b60008060408385031215610b0857600080fd5b6000610b1685828601610966565b9250506020610b27858286016109db565b9150509250929050565b600060208284031215610b4357600080fd5b6000610b5184828501610990565b91505092915050565b600060208284031215610b6c57600080fd5b6000610b7a848285016109f0565b91505092915050565b60008060008060808587031215610b9957600080fd5b6000610ba7878288016109db565b945050602085013567ffffffffffffffff811115610bc457600080fd5b610bd0878288016109c0565b935050604085013567ffffffffffffffff811115610bed57600080fd5b610bf9878288016109c0565b925050606085013567ffffffffffffffff811115610c1657600080fd5b610c22878288016109a5565b91505092959194509250565b610c3781611085565b82525050565b610c468161101e565b82525050565b6000610c588385610fbd565b9350610c658385846110bb565b610c6e8361112c565b840190509392505050565b6000610c858385610fce565b9350610c928385846110bb565b82840190509392505050565b6000610ca982610fb2565b610cb38185610fce565b9350610cc38185602086016110ca565b80840191505092915050565b6000610cdc600283610fd9565b9150610ce78261113d565b602082019050919050565b6000610cff600b83610fd9565b9150610d0a82611166565b602082019050919050565b6000610d22600283610fd9565b9150610d2d8261118f565b602082019050919050565b6000610d45600383610fd9565b9150610d50826111b8565b602082019050919050565b610d648161106e565b82525050565b6000610d77828486610c79565b91508190509392505050565b6000610d8f8284610c9e565b915081905092915050565b6000602082019050610daf6000830184610c3d565b92915050565b600060c082019050610dca600083018a610c3d565b610dd76020830189610c3d565b610de46040830188610c3d565b610df16060830187610d5b565b610dfe6080830186610d5b565b81810360a0830152610e11818486610c4c565b905098975050505050505050565b6000606082019050610e346000830186610c3d565b610e416020830185610c3d565b610e4e6040830184610d5b565b949350505050565b6000604082019050610e6b6000830185610c3d565b610e786020830184610d5b565b9392505050565b60006020820190508181036000830152610e9881610ccf565b9050919050565b60006020820190508181036000830152610eb881610cf2565b9050919050565b60006020820190508181036000830152610ed881610d15565b9050919050565b60006020820190508181036000830152610ef881610d38565b9050919050565b600060a082019050610f146000830189610d5b565b610f216020830188610c3d565b610f2e6040830187610c3d565b610f3b6060830186610c2e565b8181036080830152610f4e818486610c4c565b9050979650505050505050565b60008083356001602003843603038112610f7457600080fd5b80840192508235915067ffffffffffffffff821115610f9257600080fd5b602083019250600182023603831315610faa57600080fd5b509250929050565b600081519050919050565b600082825260208201905092915050565b600081905092915050565b600082825260208201905092915050565b6000610ff58261106e565b91506110008361106e565b925082821015611013576110126110fd565b5b828203905092915050565b60006110298261104e565b9050919050565b600061103b8261104e565b9050919050565b60008115159050919050565b600073ffffffffffffffffffffffffffffffffffffffff82169050919050565b6000819050919050565b600060ff82169050919050565b600061109082611097565b9050919050565b60006110a2826110a9565b9050919050565b60006110b48261104e565b9050919050565b82818337600083830152505050565b60005b838110156110e85780820151818401526020810190506110cd565b838111156110f7576000848401525b50505050565b7f4e487b7100000000000000000000000000000000000000000000000000000000600052601160045260246000fd5b6000601f19601f8301169050919050565b7f5341000000000000000000000000000000000000000000000000000000000000600082015250565b7f53574150204641494c4544000000000000000000000000000000000000000000600082015250565b7f5354000000000000000000000000000000000000000000000000000000000000600082015250565b7f5354460000000000000000000000000000000000000000000000000000000000600082015250565b6111ea8161101e565b81146111f557600080fd5b50565b61120181611030565b811461120c57600080fd5b50565b61121881611042565b811461122357600080fd5b50565b61122f8161106e565b811461123a57600080fd5b50565b61124681611078565b811461125157600080fd5b5056fea264697066735822122037994d141d77d15b3c60c44f067bcd36b8d70909c349dbb9a94441f4e49f89aa64736f6c63430008010033",
  "devdoc": {
    "kind": "dev",
    "methods": {
      "constructor": {
        "params": {
          "_anyswapRouterAddress": "Address of the default bridge"
        }
      },
      "initTokensCross(uint256,(address,address,address,bytes),(address,address,address,bytes),(address,address,uint256,bytes))": {
        "details": "This function is executed on the origin chain"
      }
    },
    "version": 1
  },
  "userdoc": {
    "kind": "user",
    "methods": {
      "finalizeTokenCross(address,address,address,uint256,uint256,uint8)": {
        "notice": "Finalize the process of swidging"
      },
      "initTokensCross(uint256,(address,address,address,bytes),(address,address,address,bytes),(address,address,uint256,bytes))": {
        "notice": "Init the process of swidging"
      },
      "retrieve(address,uint256)": {
        "notice": "To retrieve any tokens that got stuck on the contract"
      }
    },
    "version": 1
  },
  "storageLayout": {
    "storage": [
      {
        "astId": 500,
        "contract": "contracts/Router.sol:Router",
        "label": "bridgeProviders",
        "offset": 0,
        "slot": "0",
        "type": "t_mapping(t_uint8,t_contract(IBridge)916)"
      }
    ],
    "types": {
      "t_contract(IBridge)916": {
        "encoding": "inplace",
        "label": "contract IBridge",
        "numberOfBytes": "20"
      },
      "t_mapping(t_uint8,t_contract(IBridge)916)": {
        "encoding": "mapping",
        "key": "t_uint8",
        "label": "mapping(uint8 => contract IBridge)",
        "numberOfBytes": "32",
        "value": "t_contract(IBridge)916"
      },
      "t_uint8": {
        "encoding": "inplace",
        "label": "uint8",
        "numberOfBytes": "1"
      }
    }
  }
}