{
  "address": "0x698ef266230cD82BeD2E1f4Fdf3d53382499D93E",
  "abi": [
    {
      "inputs": [
        {
          "internalType": "address",
          "name": "_anyswapRouterAddress",
          "type": "address"
        },
        {
          "internalType": "address[]",
          "name": "_dexAddresses",
          "type": "address[]"
        },
        {
          "internalType": "enum Router.dexCode[]",
          "name": "_dexCodes",
          "type": "uint8[]"
        }
      ],
      "stateMutability": "nonpayable",
      "type": "constructor"
    },
    {
      "inputs": [
        {
          "internalType": "address",
          "name": "_dstCrossToken",
          "type": "address"
        },
        {
          "internalType": "address",
          "name": "_dstToken",
          "type": "address"
        },
        {
          "internalType": "address",
          "name": "_to",
          "type": "address"
        },
        {
          "internalType": "uint256",
          "name": "_crossAmount",
          "type": "uint256"
        },
        {
          "internalType": "uint256",
          "name": "_toChainId",
          "type": "uint256"
        },
        {
          "internalType": "uint8",
          "name": "_dstDEX",
          "type": "uint8"
        }
      ],
      "name": "finalizeTokenCross",
      "outputs": [],
      "stateMutability": "nonpayable",
      "type": "function"
    },
    {
      "inputs": [],
      "name": "greet",
      "outputs": [
        {
          "internalType": "string",
          "name": "",
          "type": "string"
        }
      ],
      "stateMutability": "pure",
      "type": "function"
    },
    {
      "inputs": [
        {
          "internalType": "address",
          "name": "_srcToken",
          "type": "address"
        },
        {
          "internalType": "address",
          "name": "_srcCrossToken",
          "type": "address"
        },
        {
          "internalType": "address",
          "name": "_dstCrossToken",
          "type": "address"
        },
        {
          "internalType": "address",
          "name": "_dstToken",
          "type": "address"
        },
        {
          "internalType": "uint256",
          "name": "_srcAmount",
          "type": "uint256"
        },
        {
          "internalType": "uint256",
          "name": "_toChainId",
          "type": "uint256"
        },
        {
          "internalType": "uint8",
          "name": "_bridge",
          "type": "uint8"
        },
        {
          "internalType": "uint8",
          "name": "_srcDEX",
          "type": "uint8"
        },
        {
          "internalType": "uint8",
          "name": "_dstDEX",
          "type": "uint8"
        }
      ],
      "name": "initTokensCross",
      "outputs": [],
      "stateMutability": "nonpayable",
      "type": "function"
    }
  ],
  "transactionHash": "0x1cdfea27a4e598c50477afb358ce6812aec8ebcc805d77b7300bfbb01fcfc5f8",
  "args": [
    "0x4f3aff3a747fcade12598081e80c6605a8be192f",
    [
      "0xE592427A0AEce92De3Edee1F18E0157C05861564"
    ],
    [
      0
    ]
  ],
  "numDeployments": 1,
  "solcInputHash": "f1c6bbde8d8d982c10c60f29da08dc8e",
  "bytecode": "0x60806040523480156200001157600080fd5b50604051620020df380380620020df833981810160405281019062000037919062000555565b62000048836200006360201b60201c565b6200005a8282620000a660201b60201c565b50505062000985565b806000806101000a81548173ffffffffffffffffffffffffffffffffffffffff021916908373ffffffffffffffffffffffffffffffffffffffff16021790555050565b8051825114620000ed576040517f08c379a0000000000000000000000000000000000000000000000000000000008152600401620000e490620006c4565b60405180910390fd5b60008251141562000135576040517f08c379a00000000000000000000000000000000000000000000000000000000081526004016200012c90620006a2565b60405180910390fd5b60005b82518160ff161015620002cf576000620001e1848360ff168151811062000188577f4e487b7100000000000000000000000000000000000000000000000000000000600052603260045260246000fd5b6020026020010151848460ff1681518110620001cd577f4e487b7100000000000000000000000000000000000000000000000000000000600052603260045260246000fd5b6020026020010151620002d460201b60201c565b90508060016000858560ff168151811062000225577f4e487b7100000000000000000000000000000000000000000000000000000000600052603260045260246000fd5b6020026020010151600181111562000266577f4e487b7100000000000000000000000000000000000000000000000000000000600052602160045260246000fd5b60ff1660ff16815260200190815260200160002060006101000a81548173ffffffffffffffffffffffffffffffffffffffff021916908373ffffffffffffffffffffffffffffffffffffffff160217905550508080620002c690620007f5565b91505062000138565b505050565b600080600181111562000310577f4e487b7100000000000000000000000000000000000000000000000000000000600052602160045260246000fd5b8260018111156200034a577f4e487b7100000000000000000000000000000000000000000000000000000000600052602160045260246000fd5b14156200039257826040516200036090620003d5565b6200036c919062000663565b604051809103906000f08015801562000389573d6000803e3d6000fd5b509050620003cf565b6040517f08c379a0000000000000000000000000000000000000000000000000000000008152600401620003c69062000680565b60405180910390fd5b92915050565b610883806200185c83390190565b6000620003fa620003f4846200070f565b620006e6565b905080838252602082019050828560208602820111156200041a57600080fd5b60005b858110156200044e5781620004338882620004cd565b8452602084019350602083019250506001810190506200041d565b5050509392505050565b60006200046f62000469846200073e565b620006e6565b905080838252602082019050828560208602820111156200048f57600080fd5b60005b85811015620004c35781620004a888826200053e565b84526020840193506020830192505060018101905062000492565b5050509392505050565b600081519050620004de816200095a565b92915050565b600082601f830112620004f657600080fd5b815162000508848260208601620003e3565b91505092915050565b600082601f8301126200052357600080fd5b81516200053584826020860162000458565b91505092915050565b6000815190506200054f8162000974565b92915050565b6000806000606084860312156200056b57600080fd5b60006200057b86828701620004cd565b935050602084015167ffffffffffffffff8111156200059957600080fd5b620005a786828701620004e4565b925050604084015167ffffffffffffffff811115620005c557600080fd5b620005d38682870162000511565b9150509250925092565b620005e8816200077e565b82525050565b6000620005fd602d836200076d565b91506200060a8262000893565b604082019050919050565b600062000624601b836200076d565b91506200063182620008e2565b602082019050919050565b60006200064b602c836200076d565b915062000658826200090b565b604082019050919050565b60006020820190506200067a6000830184620005dd565b92915050565b600060208201905081810360008301526200069b81620005ee565b9050919050565b60006020820190508181036000830152620006bd8162000615565b9050919050565b60006020820190508181036000830152620006df816200063c565b9050919050565b6000620006f262000705565b9050620007008282620007bf565b919050565b6000604051905090565b600067ffffffffffffffff8211156200072d576200072c62000853565b5b602082029050602081019050919050565b600067ffffffffffffffff8211156200075c576200075b62000853565b5b602082029050602081019050919050565b600082825260208201905092915050565b60006200078b8262000792565b9050919050565b600073ffffffffffffffffffffffffffffffffffffffff82169050919050565b600060ff82169050919050565b620007ca8262000882565b810181811067ffffffffffffffff82111715620007ec57620007eb62000853565b5b80604052505050565b60006200080282620007b2565b915060ff82141562000819576200081862000824565b5b600182019050919050565b7f4e487b7100000000000000000000000000000000000000000000000000000000600052601160045260246000fd5b7f4e487b7100000000000000000000000000000000000000000000000000000000600052604160045260246000fd5b6000601f19601f8301169050919050565b7f476976656e2060646578436f64656020696d706c656d656e746174696f6e207760008201527f6173206e6f7420666f756e642e00000000000000000000000000000000000000602082015250565b7f4e6f20737761702070726f76696465727320696e666f726d65642e0000000000600082015250565b7f41646472657373657320636f756e742063616e6e6f74206d69736d617463682060008201527f636f64657320636f756e742e0000000000000000000000000000000000000000602082015250565b62000965816200077e565b81146200097157600080fd5b50565b600281106200098257600080fd5b50565b610ec780620009956000396000f3fe608060405234801561001057600080fd5b50600436106100415760003560e01c80634864177b14610046578063cfae321714610062578063ec52d23414610080575b600080fd5b610060600480360381019061005b91906108b3565b61009c565b005b61006a61021b565b6040516100779190610c24565b60405180910390f35b61009a60048036038101906100959190610979565b610258565b005b6100a88933308861040a565b6000600160008460ff1660ff16815260200190815260200160002060009054906101000a900473ffffffffffffffffffffffffffffffffffffffff16905061016e8a8273ffffffffffffffffffffffffffffffffffffffff1663a66e4e5f6040518163ffffffff1660e01b815260040160206040518083038186803b15801561013057600080fd5b505afa158015610144573d6000803e3d6000fd5b505050506040513d601f19601f82011682018060405250810190610168919061088a565b88610562565b60008173ffffffffffffffffffffffffffffffffffffffff1663a9678a188c8c308b6040518563ffffffff1660e01b81526004016101af9493929190610b7f565b602060405180830381600087803b1580156101c957600080fd5b505af11580156101dd573d6000803e3d6000fd5b505050506040513d601f19601f820116820180604052508101906102019190610a2b565b905061020e8a33836106b7565b5050505050505050505050565b60606040518060400160405280600481526020017f686f6c6100000000000000000000000000000000000000000000000000000000815250905090565b46821461029a576040517f08c379a000000000000000000000000000000000000000000000000000000000815260040161029190610ca6565b60405180910390fd5b6000600160008360ff1660ff16815260200190815260200160002060009054906101000a900473ffffffffffffffffffffffffffffffffffffffff169050610360878273ffffffffffffffffffffffffffffffffffffffff1663a66e4e5f6040518163ffffffff1660e01b815260040160206040518083038186803b15801561032257600080fd5b505afa158015610336573d6000803e3d6000fd5b505050506040513d601f19601f8201168201806040525081019061035a919061088a565b86610562565b60008173ffffffffffffffffffffffffffffffffffffffff1663a9678a18898930896040518563ffffffff1660e01b81526004016103a19493929190610b7f565b602060405180830381600087803b1580156103bb57600080fd5b505af11580156103cf573d6000803e3d6000fd5b505050506040513d601f19601f820116820180604052508101906103f39190610a2b565b90506104008787836106b7565b5050505050505050565b6000808573ffffffffffffffffffffffffffffffffffffffff166323b872dd60e01b86868660405160240161044193929190610bc4565b604051602081830303815290604052907bffffffffffffffffffffffffffffffffffffffffffffffffffffffff19166020820180517bffffffffffffffffffffffffffffffffffffffffffffffffffffffff83818316178352505050506040516104ab9190610b68565b6000604051808303816000865af19150503d80600081146104e8576040519150601f19603f3d011682016040523d82523d6000602084013e6104ed565b606091505b509150915081801561051b575060008151148061051a5750808060200190518101906105199190610a02565b5b5b61055a576040517f08c379a000000000000000000000000000000000000000000000000000000000815260040161055190610c86565b60405180910390fd5b505050505050565b6000808473ffffffffffffffffffffffffffffffffffffffff1663095ea7b360e01b8585604051602401610597929190610bfb565b604051602081830303815290604052907bffffffffffffffffffffffffffffffffffffffffffffffffffffffff19166020820180517bffffffffffffffffffffffffffffffffffffffffffffffffffffffff83818316178352505050506040516106019190610b68565b6000604051808303816000865af19150503d806000811461063e576040519150601f19603f3d011682016040523d82523d6000602084013e610643565b606091505b5091509150818015610671575060008151148061067057508080602001905181019061066f9190610a02565b5b5b6106b0576040517f08c379a00000000000000000000000000000000000000000000000000000000081526004016106a790610c46565b60405180910390fd5b5050505050565b6000808473ffffffffffffffffffffffffffffffffffffffff1663a9059cbb60e01b85856040516024016106ec929190610bfb565b604051602081830303815290604052907bffffffffffffffffffffffffffffffffffffffffffffffffffffffff19166020820180517bffffffffffffffffffffffffffffffffffffffffffffffffffffffff83818316178352505050506040516107569190610b68565b6000604051808303816000865af19150503d8060008114610793576040519150601f19603f3d011682016040523d82523d6000602084013e610798565b606091505b50915091508180156107c657506000815114806107c55750808060200190518101906107c49190610a02565b5b5b610805576040517f08c379a00000000000000000000000000000000000000000000000000000000081526004016107fc90610c66565b60405180910390fd5b5050505050565b60008135905061081b81610e35565b92915050565b60008151905061083081610e35565b92915050565b60008151905061084581610e4c565b92915050565b60008135905061085a81610e63565b92915050565b60008151905061086f81610e63565b92915050565b60008135905061088481610e7a565b92915050565b60006020828403121561089c57600080fd5b60006108aa84828501610821565b91505092915050565b60008060008060008060008060006101208a8c0312156108d257600080fd5b60006108e08c828d0161080c565b99505060206108f18c828d0161080c565b98505060406109028c828d0161080c565b97505060606109138c828d0161080c565b96505060806109248c828d0161084b565b95505060a06109358c828d0161084b565b94505060c06109468c828d01610875565b93505060e06109578c828d01610875565b9250506101006109698c828d01610875565b9150509295985092959850929598565b60008060008060008060c0878903121561099257600080fd5b60006109a089828a0161080c565b96505060206109b189828a0161080c565b95505060406109c289828a0161080c565b94505060606109d389828a0161084b565b93505060806109e489828a0161084b565b92505060a06109f589828a01610875565b9150509295509295509295565b600060208284031215610a1457600080fd5b6000610a2284828501610836565b91505092915050565b600060208284031215610a3d57600080fd5b6000610a4b84828501610860565b91505092915050565b610a5d81610cf8565b82525050565b6000610a6e82610cc6565b610a788185610cdc565b9350610a88818560208601610d4d565b80840191505092915050565b6000610a9f82610cd1565b610aa98185610ce7565b9350610ab9818560208601610d4d565b610ac281610d80565b840191505092915050565b6000610ada600283610ce7565b9150610ae582610d91565b602082019050919050565b6000610afd600283610ce7565b9150610b0882610dba565b602082019050919050565b6000610b20600383610ce7565b9150610b2b82610de3565b602082019050919050565b6000610b43601683610ce7565b9150610b4e82610e0c565b602082019050919050565b610b6281610d36565b82525050565b6000610b748284610a63565b915081905092915050565b6000608082019050610b946000830187610a54565b610ba16020830186610a54565b610bae6040830185610a54565b610bbb6060830184610b59565b95945050505050565b6000606082019050610bd96000830186610a54565b610be66020830185610a54565b610bf36040830184610b59565b949350505050565b6000604082019050610c106000830185610a54565b610c1d6020830184610b59565b9392505050565b60006020820190508181036000830152610c3e8184610a94565b905092915050565b60006020820190508181036000830152610c5f81610acd565b9050919050565b60006020820190508181036000830152610c7f81610af0565b9050919050565b60006020820190508181036000830152610c9f81610b13565b9050919050565b60006020820190508181036000830152610cbf81610b36565b9050919050565b600081519050919050565b600081519050919050565b600081905092915050565b600082825260208201905092915050565b6000610d0382610d16565b9050919050565b60008115159050919050565b600073ffffffffffffffffffffffffffffffffffffffff82169050919050565b6000819050919050565b600060ff82169050919050565b60005b83811015610d6b578082015181840152602081019050610d50565b83811115610d7a576000848401525b50505050565b6000601f19601f8301169050919050565b7f5341000000000000000000000000000000000000000000000000000000000000600082015250565b7f5354000000000000000000000000000000000000000000000000000000000000600082015250565b7f5354460000000000000000000000000000000000000000000000000000000000600082015250565b7f57726f6e672064657374696e6174696f6e2063616c6c00000000000000000000600082015250565b610e3e81610cf8565b8114610e4957600080fd5b50565b610e5581610d0a565b8114610e6057600080fd5b50565b610e6c81610d36565b8114610e7757600080fd5b50565b610e8381610d40565b8114610e8e57600080fd5b5056fea264697066735822122074ed04de94d2ea0237afbe55345e05412973e36f6acb6337a6f178a940b41fbf64736f6c6343000801003360a060405234801561001057600080fd5b5060405161088338038061088383398181016040528101906100329190610084565b8073ffffffffffffffffffffffffffffffffffffffff1660808173ffffffffffffffffffffffffffffffffffffffff1660601b81525050506100f6565b60008151905061007e816100df565b92915050565b60006020828403121561009657600080fd5b60006100a48482850161006f565b91505092915050565b60006100b8826100bf565b9050919050565b600073ffffffffffffffffffffffffffffffffffffffff82169050919050565b6100e8816100ad565b81146100f357600080fd5b50565b60805160601c61075b6101286000396000818160e50152818161012b0152818161029c0152610353015261075b6000f3fe608060405234801561001057600080fd5b506004361061004c5760003560e01c8063089fe6aa14610051578063a66e4e5f1461006f578063a9678a181461008d578063c31c9c07146100bd575b600080fd5b6100596100db565b6040516100669190610618565b60405180910390f35b6100776100e1565b604051610084919061057d565b60405180910390f35b6100a760048036038101906100a291906103b4565b610109565b6040516100b49190610633565b60405180910390f35b6100c5610351565b6040516100d291906105c1565b60405180910390f35b610bb881565b60007f0000000000000000000000000000000000000000000000000000000000000000905090565b6000808573ffffffffffffffffffffffffffffffffffffffff1663dd62ed3e857f00000000000000000000000000000000000000000000000000000000000000006040518363ffffffff1660e01b8152600401610167929190610598565b60206040518083038186803b15801561017f57600080fd5b505afa158015610193573d6000803e3d6000fd5b505050506040513d601f19601f820116820180604052508101906101b79190610417565b90508281146101fb576040517f08c379a00000000000000000000000000000000000000000000000000000000081526004016101f2906105dc565b60405180910390fd5b60006040518061010001604052808873ffffffffffffffffffffffffffffffffffffffff1681526020018773ffffffffffffffffffffffffffffffffffffffff168152602001610bb862ffffff1681526020018673ffffffffffffffffffffffffffffffffffffffff16815260200142815260200185815260200160098152602001600073ffffffffffffffffffffffffffffffffffffffff1681525090507f000000000000000000000000000000000000000000000000000000000000000073ffffffffffffffffffffffffffffffffffffffff1663414bf389826040518263ffffffff1660e01b81526004016102f391906105fc565b602060405180830381600087803b15801561030d57600080fd5b505af1158015610321573d6000803e3d6000fd5b505050506040513d601f19601f820116820180604052508101906103459190610417565b92505050949350505050565b7f000000000000000000000000000000000000000000000000000000000000000081565b600081359050610384816106f7565b92915050565b6000813590506103998161070e565b92915050565b6000815190506103ae8161070e565b92915050565b600080600080608085870312156103ca57600080fd5b60006103d887828801610375565b94505060206103e987828801610375565b93505060406103fa87828801610375565b925050606061040b8782880161038a565b91505092959194509250565b60006020828403121561042957600080fd5b60006104378482850161039f565b91505092915050565b6104498161065f565b82525050565b6104588161065f565b82525050565b610467816106aa565b82525050565b600061047a60208361064e565b9150610485826106ce565b602082019050919050565b610100820160008201516104a76000850182610440565b5060208201516104ba6020850182610440565b5060408201516104cd6040850182610541565b5060608201516104e06060850182610440565b5060808201516104f3608085018261055f565b5060a082015161050660a085018261055f565b5060c082015161051960c085018261055f565b5060e082015161052c60e0850182610532565b50505050565b61053b81610671565b82525050565b61054a81610691565b82525050565b61055981610691565b82525050565b610568816106a0565b82525050565b610577816106a0565b82525050565b6000602082019050610592600083018461044f565b92915050565b60006040820190506105ad600083018561044f565b6105ba602083018461044f565b9392505050565b60006020820190506105d6600083018461045e565b92915050565b600060208201905081810360008301526105f58161046d565b9050919050565b6000610100820190506106126000830184610490565b92915050565b600060208201905061062d6000830184610550565b92915050565b6000602082019050610648600083018461056e565b92915050565b600082825260208201905092915050565b600061066a82610671565b9050919050565b600073ffffffffffffffffffffffffffffffffffffffff82169050919050565b600062ffffff82169050919050565b6000819050919050565b60006106b5826106bc565b9050919050565b60006106c782610671565b9050919050565b7f535741503a20537761702070726f7669646572206e6f7420616c6c6f7765642e600082015250565b6107008161065f565b811461070b57600080fd5b50565b610717816106a0565b811461072257600080fd5b5056fea26469706673582212206cf4b3e8af3c5dd1f2d0e44020c7e1eb998ceea28e532c57b96c9c3c3f5a1cd664736f6c63430008010033",
  "devdoc": {
    "kind": "dev",
    "methods": {
      "constructor": {
        "params": {
          "_anyswapRouterAddress": "Address of the default bridge",
          "_dexAddresses": "Array of DEX addresses",
          "_dexCodes": "Array of DEX identifiers"
        }
      },
      "finalizeTokenCross(address,address,address,uint256,uint256,uint8)": {
        "details": "This function is executed on the destination chain"
      },
      "initTokensCross(address,address,address,address,uint256,uint256,uint8,uint8,uint8)": {
        "details": "This function is executed on the origin chain",
        "params": {
          "_dstCrossToken": "Address of the token that will arrive to the destination chain",
          "_dstDEX": "Identifier of the exchange to use on the destination chain",
          "_dstToken": "Address of the token the user wants to receive on destination",
          "_srcAmount": "Amount of source tokens that user wants to move",
          "_srcCrossToken": "Address of the token we will swap on origin chain to send to the bridge",
          "_srcDEX": "Identifier of the exchange to use on the origin chain",
          "_srcToken": "Address of the token the user wants to swidge",
          "_toChainId": "Chain identifier that the user wants its token to receive"
        }
      }
    },
    "version": 1
  },
  "userdoc": {
    "kind": "user",
    "methods": {
      "finalizeTokenCross(address,address,address,uint256,uint256,uint8)": {
        "notice": "Finalize the process of swidging"
      },
      "initTokensCross(address,address,address,address,uint256,uint256,uint8,uint8,uint8)": {
        "notice": "Init the process of swidging"
      }
    },
    "version": 1
  },
  "storageLayout": {
    "storage": [
      {
        "astId": 383,
        "contract": "contracts/Router.sol:Router",
        "label": "bridge",
        "offset": 0,
        "slot": "0",
        "type": "t_contract(AnyswapRouter)380"
      },
      {
        "astId": 388,
        "contract": "contracts/Router.sol:Router",
        "label": "swapProviders",
        "offset": 0,
        "slot": "1",
        "type": "t_mapping(t_uint8,t_contract(IDEX)690)"
      }
    ],
    "types": {
      "t_contract(AnyswapRouter)380": {
        "encoding": "inplace",
        "label": "contract AnyswapRouter",
        "numberOfBytes": "20"
      },
      "t_contract(IDEX)690": {
        "encoding": "inplace",
        "label": "contract IDEX",
        "numberOfBytes": "20"
      },
      "t_mapping(t_uint8,t_contract(IDEX)690)": {
        "encoding": "mapping",
        "key": "t_uint8",
        "label": "mapping(uint8 => contract IDEX)",
        "numberOfBytes": "32",
        "value": "t_contract(IDEX)690"
      },
      "t_uint8": {
        "encoding": "inplace",
        "label": "uint8",
        "numberOfBytes": "1"
      }
    }
  }
}