{
  "address": "0x474A58cc1EE12B7911B957DFE07Bfc748Eb3CaBF",
  "abi": [
    {
      "inputs": [
        {
          "internalType": "address",
          "name": "_swapRouterAddress",
          "type": "address"
        }
      ],
      "stateMutability": "nonpayable",
      "type": "constructor"
    },
    {
      "inputs": [],
      "name": "custodianAddress",
      "outputs": [
        {
          "internalType": "address",
          "name": "",
          "type": "address"
        }
      ],
      "stateMutability": "view",
      "type": "function"
    },
    {
      "inputs": [],
      "name": "poolFee",
      "outputs": [
        {
          "internalType": "uint24",
          "name": "",
          "type": "uint24"
        }
      ],
      "stateMutability": "view",
      "type": "function"
    },
    {
      "inputs": [
        {
          "internalType": "address",
          "name": "_tokenIn",
          "type": "address"
        },
        {
          "internalType": "address",
          "name": "_tokenOut",
          "type": "address"
        },
        {
          "internalType": "address",
          "name": "_recipient",
          "type": "address"
        },
        {
          "internalType": "uint256",
          "name": "_amountIn",
          "type": "uint256"
        }
      ],
      "name": "swap",
      "outputs": [
        {
          "internalType": "uint256",
          "name": "amountOut",
          "type": "uint256"
        }
      ],
      "stateMutability": "nonpayable",
      "type": "function"
    }
  ],
  "transactionHash": "0xe07a5c81ad9ac67cbe0279d5d0614d0ea931162a27e71bfc2c2437ef642e9e47",
  "args": [
    "0xE592427A0AEce92De3Edee1F18E0157C05861564"
  ],
  "numDeployments": 2,
  "solcInputHash": "6b4078d3e7901ac730f4ef0799c4f282",
  "bytecode": "0x608060405234801561001057600080fd5b50604051610b57380380610b578339818101604052810190610032919061008d565b806000806101000a81548173ffffffffffffffffffffffffffffffffffffffff021916908373ffffffffffffffffffffffffffffffffffffffff160217905550506100ff565b600081519050610087816100e8565b92915050565b60006020828403121561009f57600080fd5b60006100ad84828501610078565b91505092915050565b60006100c1826100c8565b9050919050565b600073ffffffffffffffffffffffffffffffffffffffff82169050919050565b6100f1816100b6565b81146100fc57600080fd5b50565b610a498061010e6000396000f3fe608060405234801561001057600080fd5b50600436106100415760003560e01c8063089fe6aa14610046578063a66e4e5f14610064578063a9678a1814610082575b600080fd5b61004e6100b2565b60405161005b9190610895565b60405180910390f35b61006c6100b8565b60405161007991906107be565b60405180910390f35b61009c60048036038101906100979190610570565b6100e1565b6040516100a991906108b0565b60405180910390f35b610bb881565b60008060009054906101000a900473ffffffffffffffffffffffffffffffffffffffff16905090565b60006100ef8584308561026f565b61011a8560008054906101000a900473ffffffffffffffffffffffffffffffffffffffff16846103c7565b60006040518061010001604052808773ffffffffffffffffffffffffffffffffffffffff1681526020018673ffffffffffffffffffffffffffffffffffffffff168152602001610bb862ffffff1681526020018573ffffffffffffffffffffffffffffffffffffffff16815260200142815260200184815260200160008152602001600073ffffffffffffffffffffffffffffffffffffffff16815250905060008054906101000a900473ffffffffffffffffffffffffffffffffffffffff1673ffffffffffffffffffffffffffffffffffffffff1663414bf389826040518263ffffffff1660e01b81526004016102129190610879565b602060405180830381600087803b15801561022c57600080fd5b505af1158015610240573d6000803e3d6000fd5b505050506040513d601f19601f8201168201806040525081019061026491906105fc565b915050949350505050565b6000808573ffffffffffffffffffffffffffffffffffffffff166323b872dd60e01b8686866040516024016102a6939291906107d9565b604051602081830303815290604052907bffffffffffffffffffffffffffffffffffffffffffffffffffffffff19166020820180517bffffffffffffffffffffffffffffffffffffffffffffffffffffffff838183161783525050505060405161031091906107a7565b6000604051808303816000865af19150503d806000811461034d576040519150601f19603f3d011682016040523d82523d6000602084013e610352565b606091505b5091509150818015610380575060008151148061037f57508080602001905181019061037e91906105d3565b5b5b6103bf576040517f08c379a00000000000000000000000000000000000000000000000000000000081526004016103b690610859565b60405180910390fd5b505050505050565b6000808473ffffffffffffffffffffffffffffffffffffffff1663095ea7b360e01b85856040516024016103fc929190610810565b604051602081830303815290604052907bffffffffffffffffffffffffffffffffffffffffffffffffffffffff19166020820180517bffffffffffffffffffffffffffffffffffffffffffffffffffffffff838183161783525050505060405161046691906107a7565b6000604051808303816000865af19150503d80600081146104a3576040519150601f19603f3d011682016040523d82523d6000602084013e6104a8565b606091505b50915091508180156104d657506000815114806104d55750808060200190518101906104d491906105d3565b5b5b610515576040517f08c379a000000000000000000000000000000000000000000000000000000000815260040161050c90610839565b60405180910390fd5b5050505050565b60008135905061052b816109ce565b92915050565b600081519050610540816109e5565b92915050565b600081359050610555816109fc565b92915050565b60008151905061056a816109fc565b92915050565b6000806000806080858703121561058657600080fd5b60006105948782880161051c565b94505060206105a58782880161051c565b93505060406105b68782880161051c565b92505060606105c787828801610546565b91505092959194509250565b6000602082840312156105e557600080fd5b60006105f384828501610531565b91505092915050565b60006020828403121561060e57600080fd5b600061061c8482850161055b565b91505092915050565b61062e816108f2565b82525050565b61063d816108f2565b82525050565b600061064e826108cb565b61065881856108d6565b9350610668818560208601610949565b80840191505092915050565b60006106816002836108e1565b915061068c8261097c565b602082019050919050565b60006106a46003836108e1565b91506106af826109a5565b602082019050919050565b610100820160008201516106d16000850182610625565b5060208201516106e46020850182610625565b5060408201516106f7604085018261076b565b50606082015161070a6060850182610625565b50608082015161071d6080850182610789565b5060a082015161073060a0850182610789565b5060c082015161074360c0850182610789565b5060e082015161075660e085018261075c565b50505050565b61076581610910565b82525050565b61077481610930565b82525050565b61078381610930565b82525050565b6107928161093f565b82525050565b6107a18161093f565b82525050565b60006107b38284610643565b915081905092915050565b60006020820190506107d36000830184610634565b92915050565b60006060820190506107ee6000830186610634565b6107fb6020830185610634565b6108086040830184610798565b949350505050565b60006040820190506108256000830185610634565b6108326020830184610798565b9392505050565b6000602082019050818103600083015261085281610674565b9050919050565b6000602082019050818103600083015261087281610697565b9050919050565b60006101008201905061088f60008301846106ba565b92915050565b60006020820190506108aa600083018461077a565b92915050565b60006020820190506108c56000830184610798565b92915050565b600081519050919050565b600081905092915050565b600082825260208201905092915050565b60006108fd82610910565b9050919050565b60008115159050919050565b600073ffffffffffffffffffffffffffffffffffffffff82169050919050565b600062ffffff82169050919050565b6000819050919050565b60005b8381101561096757808201518184015260208101905061094c565b83811115610976576000848401525b50505050565b7f5341000000000000000000000000000000000000000000000000000000000000600082015250565b7f5354460000000000000000000000000000000000000000000000000000000000600082015250565b6109d7816108f2565b81146109e257600080fd5b50565b6109ee81610904565b81146109f957600080fd5b50565b610a058161093f565b8114610a1057600080fd5b5056fea264697066735822122066f43d4c40feb1af648a91b727cf183120e3edfc4d84dc9daefaab396b35f69964736f6c63430008010033",
  "devdoc": {
    "kind": "dev",
    "methods": {},
    "version": 1
  },
  "userdoc": {
    "kind": "user",
    "methods": {},
    "version": 1
  },
  "storageLayout": {
    "storage": [
      {
        "astId": 548,
        "contract": "contracts/dexs/UniswapDEX.sol:UniswapDEX",
        "label": "swapRouterAddress",
        "offset": 0,
        "slot": "0",
        "type": "t_address"
      }
    ],
    "types": {
      "t_address": {
        "encoding": "inplace",
        "label": "address",
        "numberOfBytes": "20"
      }
    }
  }
}