{
  "address": "0xB3EEAa6e39A01C288A042693cEaB1323b02a02B4",
  "abi": [
    {
      "inputs": [
        {
          "internalType": "address",
          "name": "bridgeAddress",
          "type": "address"
        }
      ],
      "stateMutability": "nonpayable",
      "type": "constructor"
    },
    {
      "anonymous": false,
      "inputs": [
        {
          "indexed": true,
          "internalType": "address",
          "name": "previousOwner",
          "type": "address"
        },
        {
          "indexed": true,
          "internalType": "address",
          "name": "newOwner",
          "type": "address"
        }
      ],
      "name": "OwnershipTransferred",
      "type": "event"
    },
    {
      "anonymous": false,
      "inputs": [
        {
          "indexed": true,
          "internalType": "address",
          "name": "routerAddress",
          "type": "address"
        }
      ],
      "name": "UpdatedRouter",
      "type": "event"
    },
    {
      "inputs": [],
      "name": "owner",
      "outputs": [
        {
          "internalType": "address",
          "name": "",
          "type": "address"
        }
      ],
      "stateMutability": "view",
      "type": "function"
    },
    {
      "inputs": [],
      "name": "renounceOwnership",
      "outputs": [],
      "stateMutability": "nonpayable",
      "type": "function"
    },
    {
      "inputs": [
        {
          "internalType": "address",
          "name": "_token",
          "type": "address"
        },
        {
          "internalType": "uint256",
          "name": "_amount",
          "type": "uint256"
        }
      ],
      "name": "retrieve",
      "outputs": [],
      "stateMutability": "nonpayable",
      "type": "function"
    },
    {
      "inputs": [
        {
          "internalType": "address",
          "name": "_token",
          "type": "address"
        },
        {
          "internalType": "address",
          "name": "_from",
          "type": "address"
        },
        {
          "internalType": "address",
          "name": "_to",
          "type": "address"
        },
        {
          "internalType": "uint256",
          "name": "_amount",
          "type": "uint256"
        },
        {
          "internalType": "uint256",
          "name": "_toChainId",
          "type": "uint256"
        },
        {
          "internalType": "bytes",
          "name": "_data",
          "type": "bytes"
        }
      ],
      "name": "send",
      "outputs": [],
      "stateMutability": "nonpayable",
      "type": "function"
    },
    {
      "inputs": [
        {
          "internalType": "address",
          "name": "newOwner",
          "type": "address"
        }
      ],
      "name": "transferOwnership",
      "outputs": [],
      "stateMutability": "nonpayable",
      "type": "function"
    },
    {
      "inputs": [
        {
          "internalType": "address",
          "name": "routerAddress",
          "type": "address"
        }
      ],
      "name": "updateRouter",
      "outputs": [],
      "stateMutability": "nonpayable",
      "type": "function"
    }
  ],
  "transactionHash": "0x9e9ab6ab0f8d16935b1da215e9402f13848b91affc390557b0adf1fde9141b42",
  "args": [
    "0x1ccca1ce62c62f7be95d4a67722a8fdbed6eecb4"
  ],
  "numDeployments": 2,
  "solcInputHash": "fdf3e66e17286719528854b57f7ca9f9",
  "bytecode": "0x60806040523480156200001157600080fd5b506040516200139f3803806200139f833981810160405281019062000037919062000182565b620000576200004b6200009f60201b60201c565b620000a760201b60201c565b80600260006101000a81548173ffffffffffffffffffffffffffffffffffffffff021916908373ffffffffffffffffffffffffffffffffffffffff16021790555050620001fc565b600033905090565b60008060009054906101000a900473ffffffffffffffffffffffffffffffffffffffff169050816000806101000a81548173ffffffffffffffffffffffffffffffffffffffff021916908373ffffffffffffffffffffffffffffffffffffffff1602179055508173ffffffffffffffffffffffffffffffffffffffff168173ffffffffffffffffffffffffffffffffffffffff167f8be0079c531659141344cd1fd0a4f28419497f9722a3daafe3b4186f6b6457e060405160405180910390a35050565b6000815190506200017c81620001e2565b92915050565b6000602082840312156200019557600080fd5b6000620001a5848285016200016b565b91505092915050565b6000620001bb82620001c2565b9050919050565b600073ffffffffffffffffffffffffffffffffffffffff82169050919050565b620001ed81620001ae565b8114620001f957600080fd5b50565b611193806200020c6000396000f3fe608060405234801561001057600080fd5b50600436106100625760003560e01c8063715018a6146100675780638da5cb5b14610071578063c3a2a6651461008f578063c851cc32146100ab578063da1c7e8c146100c7578063f2fde38b146100e3575b600080fd5b61006f6100ff565b005b610079610187565b6040516100869190610db1565b60405180910390f35b6100a960048036038101906100a49190610c14565b6101b0565b005b6100c560048036038101906100c09190610b1b565b61023b565b005b6100e160048036038101906100dc9190610b6d565b61033e565b005b6100fd60048036038101906100f89190610b1b565b6104b7565b005b6101076105af565b73ffffffffffffffffffffffffffffffffffffffff16610125610187565b73ffffffffffffffffffffffffffffffffffffffff161461017b576040517f08c379a000000000000000000000000000000000000000000000000000000000815260040161017290610ef1565b60405180910390fd5b61018560006105b7565b565b60008060009054906101000a900473ffffffffffffffffffffffffffffffffffffffff16905090565b6101b86105af565b73ffffffffffffffffffffffffffffffffffffffff166101d6610187565b73ffffffffffffffffffffffffffffffffffffffff161461022c576040517f08c379a000000000000000000000000000000000000000000000000000000000815260040161022390610ef1565b60405180910390fd5b61023782338361067b565b5050565b6102436105af565b73ffffffffffffffffffffffffffffffffffffffff16610261610187565b73ffffffffffffffffffffffffffffffffffffffff16146102b7576040517f08c379a00000000000000000000000000000000000000000000000000000000081526004016102ae90610ef1565b60405180910390fd5b80600160006101000a81548173ffffffffffffffffffffffffffffffffffffffff021916908373ffffffffffffffffffffffffffffffffffffffff1602179055508073ffffffffffffffffffffffffffffffffffffffff167f66fc0187dfabf79860e1b18e6c175c92baf9ed88c8a01d0bfdb97d1f0450f7f760405160405180910390a250565b600160009054906101000a900473ffffffffffffffffffffffffffffffffffffffff1673ffffffffffffffffffffffffffffffffffffffff163373ffffffffffffffffffffffffffffffffffffffff16146103ce576040517f08c379a00000000000000000000000000000000000000000000000000000000081526004016103c590610eb1565b60405180910390fd5b6103da878730876107d0565b61040787600260009054906101000a900473ffffffffffffffffffffffffffffffffffffffff1686610928565b600082828101906104189190610b44565b9050600260009054906101000a900473ffffffffffffffffffffffffffffffffffffffff1673ffffffffffffffffffffffffffffffffffffffff1663edbdf5e2828888886040518563ffffffff1660e01b815260040161047b9493929190610e03565b600060405180830381600087803b15801561049557600080fd5b505af11580156104a9573d6000803e3d6000fd5b505050505050505050505050565b6104bf6105af565b73ffffffffffffffffffffffffffffffffffffffff166104dd610187565b73ffffffffffffffffffffffffffffffffffffffff1614610533576040517f08c379a000000000000000000000000000000000000000000000000000000000815260040161052a90610ef1565b60405180910390fd5b600073ffffffffffffffffffffffffffffffffffffffff168173ffffffffffffffffffffffffffffffffffffffff1614156105a3576040517f08c379a000000000000000000000000000000000000000000000000000000000815260040161059a90610e91565b60405180910390fd5b6105ac816105b7565b50565b600033905090565b60008060009054906101000a900473ffffffffffffffffffffffffffffffffffffffff169050816000806101000a81548173ffffffffffffffffffffffffffffffffffffffff021916908373ffffffffffffffffffffffffffffffffffffffff1602179055508173ffffffffffffffffffffffffffffffffffffffff168173ffffffffffffffffffffffffffffffffffffffff167f8be0079c531659141344cd1fd0a4f28419497f9722a3daafe3b4186f6b6457e060405160405180910390a35050565b6000808473ffffffffffffffffffffffffffffffffffffffff1663a9059cbb60e01b85856040516024016106b0929190610e48565b604051602081830303815290604052907bffffffffffffffffffffffffffffffffffffffffffffffffffffffff19166020820180517bffffffffffffffffffffffffffffffffffffffffffffffffffffffff838183161783525050505060405161071a9190610d9a565b6000604051808303816000865af19150503d8060008114610757576040519150601f19603f3d011682016040523d82523d6000602084013e61075c565b606091505b509150915081801561078a57506000815114806107895750808060200190518101906107889190610c50565b5b5b6107c9576040517f08c379a00000000000000000000000000000000000000000000000000000000081526004016107c090610ed1565b60405180910390fd5b5050505050565b6000808573ffffffffffffffffffffffffffffffffffffffff166323b872dd60e01b86868660405160240161080793929190610dcc565b604051602081830303815290604052907bffffffffffffffffffffffffffffffffffffffffffffffffffffffff19166020820180517bffffffffffffffffffffffffffffffffffffffffffffffffffffffff83818316178352505050506040516108719190610d9a565b6000604051808303816000865af19150503d80600081146108ae576040519150601f19603f3d011682016040523d82523d6000602084013e6108b3565b606091505b50915091508180156108e157506000815114806108e05750808060200190518101906108df9190610c50565b5b5b610920576040517f08c379a000000000000000000000000000000000000000000000000000000000815260040161091790610f11565b60405180910390fd5b505050505050565b6000808473ffffffffffffffffffffffffffffffffffffffff1663095ea7b360e01b858560405160240161095d929190610e48565b604051602081830303815290604052907bffffffffffffffffffffffffffffffffffffffffffffffffffffffff19166020820180517bffffffffffffffffffffffffffffffffffffffffffffffffffffffff83818316178352505050506040516109c79190610d9a565b6000604051808303816000865af19150503d8060008114610a04576040519150601f19603f3d011682016040523d82523d6000602084013e610a09565b606091505b5091509150818015610a375750600081511480610a36575080806020019051810190610a359190610c50565b5b5b610a76576040517f08c379a0000000000000000000000000000000000000000000000000000000008152600401610a6d90610e71565b60405180910390fd5b5050505050565b600081359050610a8c81611101565b92915050565b600081359050610aa181611118565b92915050565b600081519050610ab68161112f565b92915050565b60008083601f840112610ace57600080fd5b8235905067ffffffffffffffff811115610ae757600080fd5b602083019150836001820283011115610aff57600080fd5b9250929050565b600081359050610b1581611146565b92915050565b600060208284031215610b2d57600080fd5b6000610b3b84828501610a7d565b91505092915050565b600060208284031215610b5657600080fd5b6000610b6484828501610a92565b91505092915050565b600080600080600080600060c0888a031215610b8857600080fd5b6000610b968a828b01610a7d565b9750506020610ba78a828b01610a7d565b9650506040610bb88a828b01610a7d565b9550506060610bc98a828b01610b06565b9450506080610bda8a828b01610b06565b93505060a088013567ffffffffffffffff811115610bf757600080fd5b610c038a828b01610abc565b925092505092959891949750929550565b60008060408385031215610c2757600080fd5b6000610c3585828601610a7d565b9250506020610c4685828601610b06565b9150509250929050565b600060208284031215610c6257600080fd5b6000610c7084828501610aa7565b91505092915050565b610c8281610f58565b82525050565b6000610c9382610f31565b610c9d8185610f3c565b9350610cad818560208601610fb2565b80840191505092915050565b6000610cc6600283610f47565b9150610cd182610fe5565b602082019050919050565b6000610ce9602683610f47565b9150610cf48261100e565b604082019050919050565b6000610d0c601383610f47565b9150610d178261105d565b602082019050919050565b6000610d2f600283610f47565b9150610d3a82611086565b602082019050919050565b6000610d52602083610f47565b9150610d5d826110af565b602082019050919050565b6000610d75600383610f47565b9150610d80826110d8565b602082019050919050565b610d9481610fa8565b82525050565b6000610da68284610c88565b915081905092915050565b6000602082019050610dc66000830184610c79565b92915050565b6000606082019050610de16000830186610c79565b610dee6020830185610c79565b610dfb6040830184610d8b565b949350505050565b6000608082019050610e186000830187610c79565b610e256020830186610c79565b610e326040830185610d8b565b610e3f6060830184610d8b565b95945050505050565b6000604082019050610e5d6000830185610c79565b610e6a6020830184610d8b565b9392505050565b60006020820190508181036000830152610e8a81610cb9565b9050919050565b60006020820190508181036000830152610eaa81610cdc565b9050919050565b60006020820190508181036000830152610eca81610cff565b9050919050565b60006020820190508181036000830152610eea81610d22565b9050919050565b60006020820190508181036000830152610f0a81610d45565b9050919050565b60006020820190508181036000830152610f2a81610d68565b9050919050565b600081519050919050565b600081905092915050565b600082825260208201905092915050565b6000610f6382610f88565b9050919050565b6000610f7582610f88565b9050919050565b60008115159050919050565b600073ffffffffffffffffffffffffffffffffffffffff82169050919050565b6000819050919050565b60005b83811015610fd0578082015181840152602081019050610fb5565b83811115610fdf576000848401525b50505050565b7f5341000000000000000000000000000000000000000000000000000000000000600082015250565b7f4f776e61626c653a206e6577206f776e657220697320746865207a65726f206160008201527f6464726573730000000000000000000000000000000000000000000000000000602082015250565b7f556e617574686f72697a65642063616c6c657200000000000000000000000000600082015250565b7f5354000000000000000000000000000000000000000000000000000000000000600082015250565b7f4f776e61626c653a2063616c6c6572206973206e6f7420746865206f776e6572600082015250565b7f5354460000000000000000000000000000000000000000000000000000000000600082015250565b61110a81610f58565b811461111557600080fd5b50565b61112181610f6a565b811461112c57600080fd5b50565b61113881610f7c565b811461114357600080fd5b50565b61114f81610fa8565b811461115a57600080fd5b5056fea264697066735822122091be6e5963cc737ac1248c1664228372d259b6991df91785d96ba8d5908201ec64736f6c63430008010033",
  "devdoc": {
    "kind": "dev",
    "methods": {
      "owner()": {
        "details": "Returns the address of the current owner."
      },
      "renounceOwnership()": {
        "details": "Leaves the contract without owner. It will not be possible to call `onlyOwner` functions anymore. Can only be called by the current owner. NOTE: Renouncing ownership will leave the contract without an owner, thereby removing any functionality that is only available to the owner."
      },
      "transferOwnership(address)": {
        "details": "Transfers ownership of the contract to a new account (`newOwner`). Can only be called by the current owner."
      }
    },
    "version": 1
  },
  "userdoc": {
    "kind": "user",
    "methods": {},
    "version": 1
  },
  "storageLayout": {
    "storage": [
      {
        "astId": 7,
        "contract": "contracts/bridge/Anyswap.sol:Anyswap",
        "label": "_owner",
        "offset": 0,
        "slot": "0",
        "type": "t_address"
      },
      {
        "astId": 849,
        "contract": "contracts/bridge/Anyswap.sol:Anyswap",
        "label": "router",
        "offset": 0,
        "slot": "1",
        "type": "t_address"
      },
      {
        "astId": 767,
        "contract": "contracts/bridge/Anyswap.sol:Anyswap",
        "label": "bridge",
        "offset": 0,
        "slot": "2",
        "type": "t_contract(AnyswapRouter)762"
      }
    ],
    "types": {
      "t_address": {
        "encoding": "inplace",
        "label": "address",
        "numberOfBytes": "20"
      },
      "t_contract(AnyswapRouter)762": {
        "encoding": "inplace",
        "label": "contract AnyswapRouter",
        "numberOfBytes": "20"
      }
    }
  }
}