{
  "address": "0x3c12C54d9F1Cf162BB962e9A6D28fcc176621392",
  "abi": [
    {
      "anonymous": false,
      "inputs": [
        {
          "indexed": true,
          "internalType": "address",
          "name": "previousOwner",
          "type": "address"
        },
        {
          "indexed": true,
          "internalType": "address",
          "name": "newOwner",
          "type": "address"
        }
      ],
      "name": "OwnershipTransferred",
      "type": "event"
    },
    {
      "anonymous": false,
      "inputs": [
        {
          "indexed": true,
          "internalType": "address",
          "name": "routerAddress",
          "type": "address"
        }
      ],
      "name": "UpdatedRouter",
      "type": "event"
    },
    {
      "inputs": [],
      "name": "owner",
      "outputs": [
        {
          "internalType": "address",
          "name": "",
          "type": "address"
        }
      ],
      "stateMutability": "view",
      "type": "function"
    },
    {
      "inputs": [],
      "name": "renounceOwnership",
      "outputs": [],
      "stateMutability": "nonpayable",
      "type": "function"
    },
    {
      "inputs": [
        {
          "internalType": "address",
          "name": "_token",
          "type": "address"
        },
        {
          "internalType": "uint256",
          "name": "_amount",
          "type": "uint256"
        }
      ],
      "name": "retrieve",
      "outputs": [],
      "stateMutability": "nonpayable",
      "type": "function"
    },
    {
      "inputs": [
        {
          "internalType": "address",
          "name": "_tokenIn",
          "type": "address"
        },
        {
          "internalType": "address",
          "name": "_tokenOut",
          "type": "address"
        },
        {
          "internalType": "address",
          "name": "_router",
          "type": "address"
        },
        {
          "internalType": "uint256",
          "name": "_amountIn",
          "type": "uint256"
        },
        {
          "internalType": "bytes",
          "name": "_data",
          "type": "bytes"
        }
      ],
      "name": "swap",
      "outputs": [
        {
          "internalType": "uint256",
          "name": "boughtAmount",
          "type": "uint256"
        }
      ],
      "stateMutability": "payable",
      "type": "function"
    },
    {
      "inputs": [
        {
          "internalType": "address",
          "name": "newOwner",
          "type": "address"
        }
      ],
      "name": "transferOwnership",
      "outputs": [],
      "stateMutability": "nonpayable",
      "type": "function"
    },
    {
      "inputs": [
        {
          "internalType": "address",
          "name": "_routerAddress",
          "type": "address"
        }
      ],
      "name": "updateRouter",
      "outputs": [],
      "stateMutability": "nonpayable",
      "type": "function"
    }
  ],
  "transactionHash": "0x0bc0669d5293fd30de5ca86e133bf7a33afc1617382e8fbaf8e72b2007b8843c",
  "args": [],
  "numDeployments": 1,
  "solcInputHash": "62b2119cdd6cc5a25e657401162b2e2b",
  "bytecode": "0x608060405234801561001057600080fd5b5061002d61002261003260201b60201c565b61003a60201b60201c565b6100fe565b600033905090565b60008060009054906101000a900473ffffffffffffffffffffffffffffffffffffffff169050816000806101000a81548173ffffffffffffffffffffffffffffffffffffffff021916908373ffffffffffffffffffffffffffffffffffffffff1602179055508173ffffffffffffffffffffffffffffffffffffffff168173ffffffffffffffffffffffffffffffffffffffff167f8be0079c531659141344cd1fd0a4f28419497f9722a3daafe3b4186f6b6457e060405160405180910390a35050565b61153f8061010d6000396000f3fe6080604052600436106100555760003560e01c8063715018a61461005a5780638da5cb5b14610071578063c3a2a6651461009c578063c851cc32146100c5578063da145263146100ee578063f2fde38b1461011e575b600080fd5b34801561006657600080fd5b5061006f610147565b005b34801561007d57600080fd5b506100866101cf565b6040516100939190611005565b60405180910390f35b3480156100a857600080fd5b506100c360048036038101906100be9190610e1c565b6101f8565b005b3480156100d157600080fd5b506100ec60048036038101906100e79190610d0d565b610283565b005b61010860048036038101906101039190610d8a565b610386565b6040516101159190611160565b60405180910390f35b34801561012a57600080fd5b5061014560048036038101906101409190610d0d565b61062c565b005b61014f610724565b73ffffffffffffffffffffffffffffffffffffffff1661016d6101cf565b73ffffffffffffffffffffffffffffffffffffffff16146101c3576040517f08c379a00000000000000000000000000000000000000000000000000000000081526004016101ba90611120565b60405180910390fd5b6101cd600061072c565b565b60008060009054906101000a900473ffffffffffffffffffffffffffffffffffffffff16905090565b610200610724565b73ffffffffffffffffffffffffffffffffffffffff1661021e6101cf565b73ffffffffffffffffffffffffffffffffffffffff1614610274576040517f08c379a000000000000000000000000000000000000000000000000000000000815260040161026b90611120565b60405180910390fd5b61027f8233836107f0565b5050565b61028b610724565b73ffffffffffffffffffffffffffffffffffffffff166102a96101cf565b73ffffffffffffffffffffffffffffffffffffffff16146102ff576040517f08c379a00000000000000000000000000000000000000000000000000000000081526004016102f690611120565b60405180910390fd5b80600160006101000a81548173ffffffffffffffffffffffffffffffffffffffff021916908373ffffffffffffffffffffffffffffffffffffffff1602179055508073ffffffffffffffffffffffffffffffffffffffff167f66fc0187dfabf79860e1b18e6c175c92baf9ed88c8a01d0bfdb97d1f0450f7f760405160405180910390a250565b6000600160009054906101000a900473ffffffffffffffffffffffffffffffffffffffff1673ffffffffffffffffffffffffffffffffffffffff163373ffffffffffffffffffffffffffffffffffffffff1614610418576040517f08c379a000000000000000000000000000000000000000000000000000000000815260040161040f906110e0565b60405180910390fd5b61042487863087610945565b60008084848101906104369190610d36565b91509150610445898388610a9d565b8773ffffffffffffffffffffffffffffffffffffffff166370a08231306040518263ffffffff1660e01b815260040161047e9190611005565b60206040518083038186803b15801561049657600080fd5b505afa1580156104aa573d6000803e3d6000fd5b505050506040513d601f19601f820116820180604052508101906104ce9190610e81565b925060008273ffffffffffffffffffffffffffffffffffffffff1634836040516104f89190610fee565b60006040518083038185875af1925050503d8060008114610535576040519150601f19603f3d011682016040523d82523d6000602084013e61053a565b606091505b505090508061057e576040517f08c379a0000000000000000000000000000000000000000000000000000000008152600401610575906110a0565b60405180910390fd5b838973ffffffffffffffffffffffffffffffffffffffff166370a08231306040518263ffffffff1660e01b81526004016105b89190611005565b60206040518083038186803b1580156105d057600080fd5b505afa1580156105e4573d6000803e3d6000fd5b505050506040513d601f19601f820116820180604052508101906106089190610e81565b61061291906111f8565b935061061f8989866107f0565b5050509695505050505050565b610634610724565b73ffffffffffffffffffffffffffffffffffffffff166106526101cf565b73ffffffffffffffffffffffffffffffffffffffff16146106a8576040517f08c379a000000000000000000000000000000000000000000000000000000000815260040161069f90611120565b60405180910390fd5b600073ffffffffffffffffffffffffffffffffffffffff168173ffffffffffffffffffffffffffffffffffffffff161415610718576040517f08c379a000000000000000000000000000000000000000000000000000000000815260040161070f906110c0565b60405180910390fd5b6107218161072c565b50565b600033905090565b60008060009054906101000a900473ffffffffffffffffffffffffffffffffffffffff169050816000806101000a81548173ffffffffffffffffffffffffffffffffffffffff021916908373ffffffffffffffffffffffffffffffffffffffff1602179055508173ffffffffffffffffffffffffffffffffffffffff168173ffffffffffffffffffffffffffffffffffffffff167f8be0079c531659141344cd1fd0a4f28419497f9722a3daafe3b4186f6b6457e060405160405180910390a35050565b6000808473ffffffffffffffffffffffffffffffffffffffff1663a9059cbb60e01b8585604051602401610825929190611057565b604051602081830303815290604052907bffffffffffffffffffffffffffffffffffffffffffffffffffffffff19166020820180517bffffffffffffffffffffffffffffffffffffffffffffffffffffffff838183161783525050505060405161088f9190610fee565b6000604051808303816000865af19150503d80600081146108cc576040519150601f19603f3d011682016040523d82523d6000602084013e6108d1565b606091505b50915091508180156108ff57506000815114806108fe5750808060200190518101906108fd9190610e58565b5b5b61093e576040517f08c379a000000000000000000000000000000000000000000000000000000000815260040161093590611100565b60405180910390fd5b5050505050565b6000808573ffffffffffffffffffffffffffffffffffffffff166323b872dd60e01b86868660405160240161097c93929190611020565b604051602081830303815290604052907bffffffffffffffffffffffffffffffffffffffffffffffffffffffff19166020820180517bffffffffffffffffffffffffffffffffffffffffffffffffffffffff83818316178352505050506040516109e69190610fee565b6000604051808303816000865af19150503d8060008114610a23576040519150601f19603f3d011682016040523d82523d6000602084013e610a28565b606091505b5091509150818015610a565750600081511480610a55575080806020019051810190610a549190610e58565b5b5b610a95576040517f08c379a0000000000000000000000000000000000000000000000000000000008152600401610a8c90611140565b60405180910390fd5b505050505050565b6000808473ffffffffffffffffffffffffffffffffffffffff1663095ea7b360e01b8585604051602401610ad2929190611057565b604051602081830303815290604052907bffffffffffffffffffffffffffffffffffffffffffffffffffffffff19166020820180517bffffffffffffffffffffffffffffffffffffffffffffffffffffffff8381831617835250505050604051610b3c9190610fee565b6000604051808303816000865af19150503d8060008114610b79576040519150601f19603f3d011682016040523d82523d6000602084013e610b7e565b606091505b5091509150818015610bac5750600081511480610bab575080806020019051810190610baa9190610e58565b5b5b610beb576040517f08c379a0000000000000000000000000000000000000000000000000000000008152600401610be290611080565b60405180910390fd5b5050505050565b6000610c05610c00846111a0565b61117b565b905082815260208101848484011115610c1d57600080fd5b610c28848285611286565b509392505050565b600081359050610c3f816114ad565b92915050565b600081359050610c54816114c4565b92915050565b600081519050610c69816114db565b92915050565b60008083601f840112610c8157600080fd5b8235905067ffffffffffffffff811115610c9a57600080fd5b602083019150836001820283011115610cb257600080fd5b9250929050565b600082601f830112610cca57600080fd5b8135610cda848260208601610bf2565b91505092915050565b600081359050610cf2816114f2565b92915050565b600081519050610d07816114f2565b92915050565b600060208284031215610d1f57600080fd5b6000610d2d84828501610c30565b91505092915050565b60008060408385031215610d4957600080fd5b6000610d5785828601610c45565b925050602083013567ffffffffffffffff811115610d7457600080fd5b610d8085828601610cb9565b9150509250929050565b60008060008060008060a08789031215610da357600080fd5b6000610db189828a01610c30565b9650506020610dc289828a01610c30565b9550506040610dd389828a01610c30565b9450506060610de489828a01610ce3565b935050608087013567ffffffffffffffff811115610e0157600080fd5b610e0d89828a01610c6f565b92509250509295509295509295565b60008060408385031215610e2f57600080fd5b6000610e3d85828601610c30565b9250506020610e4e85828601610ce3565b9150509250929050565b600060208284031215610e6a57600080fd5b6000610e7884828501610c5a565b91505092915050565b600060208284031215610e9357600080fd5b6000610ea184828501610cf8565b91505092915050565b610eb38161122c565b82525050565b6000610ec4826111d1565b610ece81856111dc565b9350610ede818560208601611295565b80840191505092915050565b6000610ef76002836111e7565b9150610f0282611368565b602082019050919050565b6000610f1a600b836111e7565b9150610f2582611391565b602082019050919050565b6000610f3d6026836111e7565b9150610f48826113ba565b604082019050919050565b6000610f606013836111e7565b9150610f6b82611409565b602082019050919050565b6000610f836002836111e7565b9150610f8e82611432565b602082019050919050565b6000610fa66020836111e7565b9150610fb18261145b565b602082019050919050565b6000610fc96003836111e7565b9150610fd482611484565b602082019050919050565b610fe88161127c565b82525050565b6000610ffa8284610eb9565b915081905092915050565b600060208201905061101a6000830184610eaa565b92915050565b60006060820190506110356000830186610eaa565b6110426020830185610eaa565b61104f6040830184610fdf565b949350505050565b600060408201905061106c6000830185610eaa565b6110796020830184610fdf565b9392505050565b6000602082019050818103600083015261109981610eea565b9050919050565b600060208201905081810360008301526110b981610f0d565b9050919050565b600060208201905081810360008301526110d981610f30565b9050919050565b600060208201905081810360008301526110f981610f53565b9050919050565b6000602082019050818103600083015261111981610f76565b9050919050565b6000602082019050818103600083015261113981610f99565b9050919050565b6000602082019050818103600083015261115981610fbc565b9050919050565b60006020820190506111756000830184610fdf565b92915050565b6000611185611196565b905061119182826112c8565b919050565b6000604051905090565b600067ffffffffffffffff8211156111bb576111ba611328565b5b6111c482611357565b9050602081019050919050565b600081519050919050565b600081905092915050565b600082825260208201905092915050565b60006112038261127c565b915061120e8361127c565b925082821015611221576112206112f9565b5b828203905092915050565b60006112378261125c565b9050919050565b60006112498261125c565b9050919050565b60008115159050919050565b600073ffffffffffffffffffffffffffffffffffffffff82169050919050565b6000819050919050565b82818337600083830152505050565b60005b838110156112b3578082015181840152602081019050611298565b838111156112c2576000848401525b50505050565b6112d182611357565b810181811067ffffffffffffffff821117156112f0576112ef611328565b5b80604052505050565b7f4e487b7100000000000000000000000000000000000000000000000000000000600052601160045260246000fd5b7f4e487b7100000000000000000000000000000000000000000000000000000000600052604160045260246000fd5b6000601f19601f8301169050919050565b7f5341000000000000000000000000000000000000000000000000000000000000600082015250565b7f53574150204641494c4544000000000000000000000000000000000000000000600082015250565b7f4f776e61626c653a206e6577206f776e657220697320746865207a65726f206160008201527f6464726573730000000000000000000000000000000000000000000000000000602082015250565b7f556e617574686f72697a65642063616c6c657200000000000000000000000000600082015250565b7f5354000000000000000000000000000000000000000000000000000000000000600082015250565b7f4f776e61626c653a2063616c6c6572206973206e6f7420746865206f776e6572600082015250565b7f5354460000000000000000000000000000000000000000000000000000000000600082015250565b6114b68161122c565b81146114c157600080fd5b50565b6114cd8161123e565b81146114d857600080fd5b50565b6114e481611250565b81146114ef57600080fd5b50565b6114fb8161127c565b811461150657600080fd5b5056fea264697066735822122022baa2d81405ed17e59a7d02a84af8263121c3b648d388c7b5906bddc2c8360664736f6c63430008010033",
  "devdoc": {
    "kind": "dev",
    "methods": {
      "owner()": {
        "details": "Returns the address of the current owner."
      },
      "renounceOwnership()": {
        "details": "Leaves the contract without owner. It will not be possible to call `onlyOwner` functions anymore. Can only be called by the current owner. NOTE: Renouncing ownership will leave the contract without an owner, thereby removing any functionality that is only available to the owner."
      },
      "transferOwnership(address)": {
        "details": "Transfers ownership of the contract to a new account (`newOwner`). Can only be called by the current owner."
      }
    },
    "version": 1
  },
  "userdoc": {
    "kind": "user",
    "methods": {},
    "version": 1
  },
  "storageLayout": {
    "storage": [
      {
        "astId": 7,
        "contract": "contracts/dexs/ZeroEx.sol:ZeroEx",
        "label": "_owner",
        "offset": 0,
        "slot": "0",
        "type": "t_address"
      },
      {
        "astId": 497,
        "contract": "contracts/dexs/ZeroEx.sol:ZeroEx",
        "label": "router",
        "offset": 0,
        "slot": "1",
        "type": "t_address"
      }
    ],
    "types": {
      "t_address": {
        "encoding": "inplace",
        "label": "address",
        "numberOfBytes": "20"
      }
    }
  }
}