{
  "address": "0xdd700e687d8b9482fF012e91894B7d0A69A279ce",
  "abi": [
    {
      "inputs": [
        {
          "internalType": "address",
          "name": "_logic",
          "type": "address"
        },
        {
          "internalType": "address",
          "name": "_admin",
          "type": "address"
        }
      ],
      "stateMutability": "payable",
      "type": "constructor"
    },
    {
      "anonymous": false,
      "inputs": [
        {
          "indexed": false,
          "internalType": "address",
          "name": "previousAdmin",
          "type": "address"
        },
        {
          "indexed": false,
          "internalType": "address",
          "name": "newAdmin",
          "type": "address"
        }
      ],
      "name": "AdminChanged",
      "type": "event"
    },
    {
      "anonymous": false,
      "inputs": [
        {
          "indexed": true,
          "internalType": "address",
          "name": "implementation",
          "type": "address"
        }
      ],
      "name": "Upgraded",
      "type": "event"
    },
    {
      "stateMutability": "payable",
      "type": "fallback"
    },
    {
      "inputs": [],
      "name": "admin",
      "outputs": [
        {
          "internalType": "address",
          "name": "admin_",
          "type": "address"
        }
      ],
      "stateMutability": "nonpayable",
      "type": "function"
    },
    {
      "inputs": [
        {
          "internalType": "address",
          "name": "newAdmin",
          "type": "address"
        }
      ],
      "name": "changeAdmin",
      "outputs": [],
      "stateMutability": "nonpayable",
      "type": "function"
    },
    {
      "inputs": [],
      "name": "implementation",
      "outputs": [
        {
          "internalType": "address",
          "name": "implementation_",
          "type": "address"
        }
      ],
      "stateMutability": "nonpayable",
      "type": "function"
    },
    {
      "inputs": [
        {
          "internalType": "address",
          "name": "newImplementation",
          "type": "address"
        }
      ],
      "name": "upgradeTo",
      "outputs": [],
      "stateMutability": "nonpayable",
      "type": "function"
    },
    {
      "stateMutability": "payable",
      "type": "receive"
    }
  ],
  "transactionHash": "0x8f28f78f5be14c7ed4e5e9bf1862af4d52fdf75954358638ecc2c3cd43ffa100",
  "args": [
    "0x698ef266230cD82BeD2E1f4Fdf3d53382499D93E",
    "0xB53FE327A78A88BdB89f99e82BDbb741311c15F8"
  ],
  "numDeployments": 1,
  "solcInputHash": "e91e23154bdf61da2281cca84b2176d8",
  "bytecode": "0x608060405260405162000e4638038062000e46833981810160405281019062000029919062000361565b60017f360894a13ba1a3210667c828492db98dca3e2076cc3735a920a3ca505d382bbd60001c6200005b919062000483565b60001b7f360894a13ba1a3210667c828492db98dca3e2076cc3735a920a3ca505d382bbc60001b14620000b7577f4e487b7100000000000000000000000000000000000000000000000000000000600052600160045260246000fd5b60017fb53127684a568b3173ae13b9f8a6016e243e63b6e8ee1178d6a717850b5d610460001c620000e9919062000483565b60001b7fb53127684a568b3173ae13b9f8a6016e243e63b6e8ee1178d6a717850b5d610360001b1462000145577f4e487b7100000000000000000000000000000000000000000000000000000000600052600160045260246000fd5b62000156826200016f60201b60201c565b6200016781620001f660201b60201c565b5050620005e3565b62000185816200025460201b620002781760201c565b620001c7576040517f08c379a0000000000000000000000000000000000000000000000000000000008152600401620001be9062000450565b60405180910390fd5b60007f360894a13ba1a3210667c828492db98dca3e2076cc3735a920a3ca505d382bbc60001b90508181555050565b7f7e644d79422f17c01e4894b5f4f588d331ebfa28653d42ae832dc59e38c9798f620002276200027760201b60201c565b826040516200023892919062000401565b60405180910390a16200025181620002a860201b60201c565b50565b6000808273ffffffffffffffffffffffffffffffffffffffff163b119050919050565b6000807fb53127684a568b3173ae13b9f8a6016e243e63b6e8ee1178d6a717850b5d610360001b9050805491505090565b600073ffffffffffffffffffffffffffffffffffffffff168173ffffffffffffffffffffffffffffffffffffffff1614156200031b576040517f08c379a000000000000000000000000000000000000000000000000000000000815260040162000312906200042e565b60405180910390fd5b60007fb53127684a568b3173ae13b9f8a6016e243e63b6e8ee1178d6a717850b5d610360001b90508181555050565b6000815190506200035b81620005c9565b92915050565b600080604083850312156200037557600080fd5b600062000385858286016200034a565b925050602062000398858286016200034a565b9150509250929050565b620003ad81620004be565b82525050565b6000620003c260268362000472565b9150620003cf826200052b565b604082019050919050565b6000620003e960368362000472565b9150620003f6826200057a565b604082019050919050565b6000604082019050620004186000830185620003a2565b620004276020830184620003a2565b9392505050565b600060208201905081810360008301526200044981620003b3565b9050919050565b600060208201905081810360008301526200046b81620003da565b9050919050565b600082825260208201905092915050565b60006200049082620004f2565b91506200049d83620004f2565b925082821015620004b357620004b2620004fc565b5b828203905092915050565b6000620004cb82620004d2565b9050919050565b600073ffffffffffffffffffffffffffffffffffffffff82169050919050565b6000819050919050565b7f4e487b7100000000000000000000000000000000000000000000000000000000600052601160045260246000fd5b7f455243313936373a206e65772061646d696e20697320746865207a65726f206160008201527f6464726573730000000000000000000000000000000000000000000000000000602082015250565b7f5570677261646561626c6550726f78793a206e657720696d706c656d656e746160008201527f74696f6e206973206e6f74206120636f6e747261637400000000000000000000602082015250565b620005d481620004be565b8114620005e057600080fd5b50565b61085380620005f36000396000f3fe6080604052600436106100435760003560e01c80633659cfe61461005c5780635c60da1b146100855780638f283970146100b0578063f851a440146100d957610052565b3661005257610050610104565b005b61005a610104565b005b34801561006857600080fd5b50610083600480360381019061007e919061056b565b61011e565b005b34801561009157600080fd5b5061009a610173565b6040516100a7919061060c565b60405180910390f35b3480156100bc57600080fd5b506100d760048036038101906100d2919061056b565b6101cb565b005b3480156100e557600080fd5b506100ee610220565b6040516100fb919061060c565b60405180910390f35b61010c61029b565b61011c61011761031b565b61034c565b565b610126610372565b73ffffffffffffffffffffffffffffffffffffffff163373ffffffffffffffffffffffffffffffffffffffff16141561016757610162816103a3565b610170565b61016f610104565b5b50565b600061017d610372565b73ffffffffffffffffffffffffffffffffffffffff163373ffffffffffffffffffffffffffffffffffffffff1614156101bf576101b861031b565b90506101c8565b6101c7610104565b5b90565b6101d3610372565b73ffffffffffffffffffffffffffffffffffffffff163373ffffffffffffffffffffffffffffffffffffffff1614156102145761020f816103f2565b61021d565b61021c610104565b5b50565b600061022a610372565b73ffffffffffffffffffffffffffffffffffffffff163373ffffffffffffffffffffffffffffffffffffffff16141561026c57610265610372565b9050610275565b610274610104565b5b90565b6000808273ffffffffffffffffffffffffffffffffffffffff163b119050919050565b6102a3610372565b73ffffffffffffffffffffffffffffffffffffffff163373ffffffffffffffffffffffffffffffffffffffff161415610311576040517f08c379a000000000000000000000000000000000000000000000000000000000815260040161030890610690565b60405180910390fd5b61031961043e565b565b6000807f360894a13ba1a3210667c828492db98dca3e2076cc3735a920a3ca505d382bbc60001b9050805491505090565b3660008037600080366000845af43d6000803e806000811461036d573d6000f35b3d6000fd5b6000807fb53127684a568b3173ae13b9f8a6016e243e63b6e8ee1178d6a717850b5d610360001b9050805491505090565b6103ac81610440565b8073ffffffffffffffffffffffffffffffffffffffff167fbc7cd75a20ee27fd9adebab32041f755214dbc6bffa90cc0225b39da2e5c2d3b60405160405180910390a250565b7f7e644d79422f17c01e4894b5f4f588d331ebfa28653d42ae832dc59e38c9798f61041b610372565b8260405161042a929190610627565b60405180910390a161043b816104b7565b50565b565b61044981610278565b610488576040517f08c379a000000000000000000000000000000000000000000000000000000000815260040161047f90610670565b60405180910390fd5b60007f360894a13ba1a3210667c828492db98dca3e2076cc3735a920a3ca505d382bbc60001b90508181555050565b600073ffffffffffffffffffffffffffffffffffffffff168173ffffffffffffffffffffffffffffffffffffffff161415610527576040517f08c379a000000000000000000000000000000000000000000000000000000000815260040161051e90610650565b60405180910390fd5b60007fb53127684a568b3173ae13b9f8a6016e243e63b6e8ee1178d6a717850b5d610360001b90508181555050565b60008135905061056581610806565b92915050565b60006020828403121561057d57600080fd5b600061058b84828501610556565b91505092915050565b61059d816106c1565b82525050565b60006105b06026836106b0565b91506105bb826106f3565b604082019050919050565b60006105d36036836106b0565b91506105de82610742565b604082019050919050565b60006105f66042836106b0565b915061060182610791565b606082019050919050565b60006020820190506106216000830184610594565b92915050565b600060408201905061063c6000830185610594565b6106496020830184610594565b9392505050565b60006020820190508181036000830152610669816105a3565b9050919050565b60006020820190508181036000830152610689816105c6565b9050919050565b600060208201905081810360008301526106a9816105e9565b9050919050565b600082825260208201905092915050565b60006106cc826106d3565b9050919050565b600073ffffffffffffffffffffffffffffffffffffffff82169050919050565b7f455243313936373a206e65772061646d696e20697320746865207a65726f206160008201527f6464726573730000000000000000000000000000000000000000000000000000602082015250565b7f5570677261646561626c6550726f78793a206e657720696d706c656d656e746160008201527f74696f6e206973206e6f74206120636f6e747261637400000000000000000000602082015250565b7f5472616e73706172656e745570677261646561626c6550726f78793a2061646d60008201527f696e2063616e6e6f742066616c6c6261636b20746f2070726f7879207461726760208201527f6574000000000000000000000000000000000000000000000000000000000000604082015250565b61080f816106c1565b811461081a57600080fd5b5056fea2646970667358221220bad9fcd4ef781e0314bf43396177a54ad1dfda3f31e326c78715ef6114a5883064736f6c63430008010033",
  "devdoc": {
    "details": "This contract implements a proxy that is upgradeable by an admin. To avoid https://medium.com/nomic-labs-blog/malicious-backdoors-in-ethereum-proxies-62629adf3357[proxy selector clashing], which can potentially be used in an attack, this contract uses the https://blog.openzeppelin.com/the-transparent-proxy-pattern/[transparent proxy pattern]. This pattern implies two things that go hand in hand: 1. If any account other than the admin calls the proxy, the call will be forwarded to the implementation, even if that call matches one of the admin functions exposed by the proxy itself. 2. If the admin calls the proxy, it can access the admin functions, but its calls will never be forwarded to the implementation. If the admin tries to call a function on the implementation it will fail with an error that says \"admin cannot fallback to proxy target\". These properties mean that the admin account can only be used for admin actions like upgrading the proxy or changing the admin, so it's best if it's a dedicated account that is not used for anything else. This will avoid headaches due to sudden errors when trying to call a function from the proxy implementation. Our recommendation is for the dedicated account to be an instance of the {ProxyAdmin} contract. If set up this way, you should think of the `ProxyAdmin` instance as the real administrative interface of your proxy.This contract implements an upgradeable proxy. It is upgradeable because calls are delegated to an implementation address that can be changed. This address is stored in storage in the location specified by https://eips.ethereum.org/EIPS/eip-1967[EIP1967], so that it doesn't conflict with the storage layout of the implementation behind the proxy. Upgradeability is only provided internally through {_upgradeTo}. For an externally upgradeable proxy see {TransparentUpgradeableProxy}.",
    "events": {
      "AdminChanged(address,address)": {
        "details": "Emitted when the admin account has changed."
      },
      "Upgraded(address)": {
        "details": "Emitted when the implementation is upgraded."
      }
    },
    "kind": "dev",
    "methods": {
      "admin()": {
        "details": "Returns the current admin. NOTE: Only the admin can call this function. See {ProxyAdmin-getProxyAdmin}. TIP: To get this value clients can read directly from the storage slot shown below (specified by EIP1967) using the https://eth.wiki/json-rpc/API#eth_getstorageat[`eth_getStorageAt`] RPC call. `0xb53127684a568b3173ae13b9f8a6016e243e63b6e8ee1178d6a717850b5d6103`"
      },
      "changeAdmin(address)": {
        "details": "Changes the admin of the proxy. Emits an {AdminChanged} event. NOTE: Only the admin can call this function. See {ProxyAdmin-changeProxyAdmin}."
      },
      "constructor": {
        "details": "Initializes an upgradeable proxy managed by `_admin`, backed by the implementation at `_logic`"
      },
      "implementation()": {
        "details": "Returns the current implementation. NOTE: Only the admin can call this function. See {ProxyAdmin-getProxyImplementation}. TIP: To get this value clients can read directly from the storage slot shown below (specified by EIP1967) using the https://eth.wiki/json-rpc/API#eth_getstorageat[`eth_getStorageAt`] RPC call. `0x360894a13ba1a3210667c828492db98dca3e2076cc3735a920a3ca505d382bbc`"
      },
      "upgradeTo(address)": {
        "details": "Upgrade the implementation of the proxy. NOTE: Only the admin can call this function. See {ProxyAdmin-upgrade}."
      }
    },
    "stateVariables": {
      "_ADMIN_SLOT": {
        "details": "Storage slot with the admin of the contract. This is the keccak-256 hash of \"eip1967.proxy.admin\" subtracted by 1, and is validated in the constructor."
      },
      "_IMPLEMENTATION_SLOT": {
        "details": "Storage slot with the address of the current implementation. This is the keccak-256 hash of \"eip1967.proxy.implementation\" subtracted by 1, and is validated in the constructor."
      }
    },
    "version": 1
  },
  "userdoc": {
    "kind": "user",
    "methods": {},
    "version": 1
  },
  "storageLayout": {
    "storage": [],
    "types": null
  }
}