{
  "address": "0x0b035Ff74B3c072780158499041c6172D54C9FD5",
  "abi": [
    {
      "inputs": [
        {
          "internalType": "address",
          "name": "_anyswapRouterAddress",
          "type": "address"
        },
        {
          "internalType": "address[]",
          "name": "_dexAddresses",
          "type": "address[]"
        },
        {
          "internalType": "enum RouterForwarder.dexCode[]",
          "name": "_dexCodes",
          "type": "uint8[]"
        }
      ],
      "stateMutability": "nonpayable",
      "type": "constructor"
    },
    {
      "inputs": [
        {
          "internalType": "address",
          "name": "_dstCrossToken",
          "type": "address"
        },
        {
          "internalType": "address",
          "name": "_dstToken",
          "type": "address"
        },
        {
          "internalType": "address",
          "name": "_to",
          "type": "address"
        },
        {
          "internalType": "uint256",
          "name": "_crossAmount",
          "type": "uint256"
        },
        {
          "internalType": "uint256",
          "name": "_toChainId",
          "type": "uint256"
        },
        {
          "internalType": "uint8",
          "name": "_dstDEX",
          "type": "uint8"
        }
      ],
      "name": "finalizeTokenCross",
      "outputs": [],
      "stateMutability": "nonpayable",
      "type": "function"
    },
    {
      "inputs": [
        {
          "internalType": "address",
          "name": "_srcToken",
          "type": "address"
        },
        {
          "internalType": "address",
          "name": "_srcCrossToken",
          "type": "address"
        },
        {
          "internalType": "address",
          "name": "_dstCrossToken",
          "type": "address"
        },
        {
          "internalType": "address",
          "name": "_dstToken",
          "type": "address"
        },
        {
          "internalType": "uint256",
          "name": "_srcAmount",
          "type": "uint256"
        },
        {
          "internalType": "uint256",
          "name": "_toChainId",
          "type": "uint256"
        },
        {
          "internalType": "uint8",
          "name": "_srcDEX",
          "type": "uint8"
        },
        {
          "internalType": "uint8",
          "name": "_dstDEX",
          "type": "uint8"
        }
      ],
      "name": "initTokensCross",
      "outputs": [],
      "stateMutability": "nonpayable",
      "type": "function"
    }
  ],
  "transactionHash": "0xf225ffb5e5273a1b4d22bbef06429ba8dddc3363b33569885b4c82d9de613edb",
  "args": [
    "0x95dD59343a893637BE1c3228060EE6afBf6F0730",
    [
      "0xE592427A0AEce92De3Edee1F18E0157C05861564"
    ],
    [
      0
    ]
  ],
  "numDeployments": 1,
  "solcInputHash": "307b620ef03858cfeaf9f2e1e72cbc23",
  "bytecode": "0x60806040523480156200001157600080fd5b50604051620021f0380380620021f0833981810160405281019062000037919062000555565b62000048836200006360201b60201c565b6200005a8282620000a660201b60201c565b50505062000985565b806000806101000a81548173ffffffffffffffffffffffffffffffffffffffff021916908373ffffffffffffffffffffffffffffffffffffffff16021790555050565b8051825114620000ed576040517f08c379a0000000000000000000000000000000000000000000000000000000008152600401620000e490620006c4565b60405180910390fd5b60008251141562000135576040517f08c379a00000000000000000000000000000000000000000000000000000000081526004016200012c90620006a2565b60405180910390fd5b60005b82518160ff161015620002cf576000620001e1848360ff168151811062000188577f4e487b7100000000000000000000000000000000000000000000000000000000600052603260045260246000fd5b6020026020010151848460ff1681518110620001cd577f4e487b7100000000000000000000000000000000000000000000000000000000600052603260045260246000fd5b6020026020010151620002d460201b60201c565b90508060016000858560ff168151811062000225577f4e487b7100000000000000000000000000000000000000000000000000000000600052603260045260246000fd5b6020026020010151600181111562000266577f4e487b7100000000000000000000000000000000000000000000000000000000600052602160045260246000fd5b60ff1660ff16815260200190815260200160002060006101000a81548173ffffffffffffffffffffffffffffffffffffffff021916908373ffffffffffffffffffffffffffffffffffffffff160217905550508080620002c690620007f5565b91505062000138565b505050565b600080600181111562000310577f4e487b7100000000000000000000000000000000000000000000000000000000600052602160045260246000fd5b8260018111156200034a577f4e487b7100000000000000000000000000000000000000000000000000000000600052602160045260246000fd5b14156200039257826040516200036090620003d5565b6200036c919062000663565b604051809103906000f08015801562000389573d6000803e3d6000fd5b509050620003cf565b6040517f08c379a0000000000000000000000000000000000000000000000000000000008152600401620003c69062000680565b60405180910390fd5b92915050565b610883806200196d83390190565b6000620003fa620003f4846200070f565b620006e6565b905080838252602082019050828560208602820111156200041a57600080fd5b60005b858110156200044e5781620004338882620004cd565b8452602084019350602083019250506001810190506200041d565b5050509392505050565b60006200046f62000469846200073e565b620006e6565b905080838252602082019050828560208602820111156200048f57600080fd5b60005b85811015620004c35781620004a888826200053e565b84526020840193506020830192505060018101905062000492565b5050509392505050565b600081519050620004de816200095a565b92915050565b600082601f830112620004f657600080fd5b815162000508848260208601620003e3565b91505092915050565b600082601f8301126200052357600080fd5b81516200053584826020860162000458565b91505092915050565b6000815190506200054f8162000974565b92915050565b6000806000606084860312156200056b57600080fd5b60006200057b86828701620004cd565b935050602084015167ffffffffffffffff8111156200059957600080fd5b620005a786828701620004e4565b925050604084015167ffffffffffffffff811115620005c557600080fd5b620005d38682870162000511565b9150509250925092565b620005e8816200077e565b82525050565b6000620005fd602d836200076d565b91506200060a8262000893565b604082019050919050565b600062000624601b836200076d565b91506200063182620008e2565b602082019050919050565b60006200064b602c836200076d565b915062000658826200090b565b604082019050919050565b60006020820190506200067a6000830184620005dd565b92915050565b600060208201905081810360008301526200069b81620005ee565b9050919050565b60006020820190508181036000830152620006bd8162000615565b9050919050565b60006020820190508181036000830152620006df816200063c565b9050919050565b6000620006f262000705565b9050620007008282620007bf565b919050565b6000604051905090565b600067ffffffffffffffff8211156200072d576200072c62000853565b5b602082029050602081019050919050565b600067ffffffffffffffff8211156200075c576200075b62000853565b5b602082029050602081019050919050565b600082825260208201905092915050565b60006200078b8262000792565b9050919050565b600073ffffffffffffffffffffffffffffffffffffffff82169050919050565b600060ff82169050919050565b620007ca8262000882565b810181811067ffffffffffffffff82111715620007ec57620007eb62000853565b5b80604052505050565b60006200080282620007b2565b915060ff82141562000819576200081862000824565b5b600182019050919050565b7f4e487b7100000000000000000000000000000000000000000000000000000000600052601160045260246000fd5b7f4e487b7100000000000000000000000000000000000000000000000000000000600052604160045260246000fd5b6000601f19601f8301169050919050565b7f476976656e2060646578436f64656020696d706c656d656e746174696f6e207760008201527f6173206e6f7420666f756e642e00000000000000000000000000000000000000602082015250565b7f4e6f20737761702070726f76696465727320696e666f726d65642e0000000000600082015250565b7f41646472657373657320636f756e742063616e6e6f74206d69736d617463682060008201527f636f64657320636f756e742e0000000000000000000000000000000000000000602082015250565b62000965816200077e565b81146200097157600080fd5b50565b600281106200098257600080fd5b50565b610fd880620009956000396000f3fe608060405234801561001057600080fd5b50600436106100365760003560e01c8063ec52d2341461003b578063f0afe4a514610057575b600080fd5b61005560048036038101906100509190610a4c565b610073565b005b610071600480360381019061006c919061099a565b610225565b005b4682146100b5576040517f08c379a00000000000000000000000000000000000000000000000000000000081526004016100ac90610dd3565b60405180910390fd5b6000600160008360ff1660ff16815260200190815260200160002060009054906101000a900473ffffffffffffffffffffffffffffffffffffffff16905061017b878273ffffffffffffffffffffffffffffffffffffffff1663a66e4e5f6040518163ffffffff1660e01b815260040160206040518083038186803b15801561013d57600080fd5b505afa158015610151573d6000803e3d6000fd5b505050506040513d601f19601f820116820180604052508101906101759190610971565b866104f1565b60008173ffffffffffffffffffffffffffffffffffffffff1663a9678a18898930896040518563ffffffff1660e01b81526004016101bc9493929190610c28565b602060405180830381600087803b1580156101d657600080fd5b505af11580156101ea573d6000803e3d6000fd5b505050506040513d601f19601f8201168201806040525081019061020e9190610afe565b905061021b878783610646565b5050505050505050565b6102318833308761079b565b6000600160008460ff1660ff16815260200190815260200160002060009054906101000a900473ffffffffffffffffffffffffffffffffffffffff1690506102f7898273ffffffffffffffffffffffffffffffffffffffff1663a66e4e5f6040518163ffffffff1660e01b815260040160206040518083038186803b1580156102b957600080fd5b505afa1580156102cd573d6000803e3d6000fd5b505050506040513d601f19601f820116820180604052508101906102f19190610971565b876104f1565b60008173ffffffffffffffffffffffffffffffffffffffff1663a9678a188b8b308a6040518563ffffffff1660e01b81526004016103389493929190610c28565b602060405180830381600087803b15801561035257600080fd5b505af1158015610366573d6000803e3d6000fd5b505050506040513d601f19601f8201168201806040525081019061038a9190610afe565b90506103b78960008054906101000a900473ffffffffffffffffffffffffffffffffffffffff16836104f1565b60008054906101000a900473ffffffffffffffffffffffffffffffffffffffff1673ffffffffffffffffffffffffffffffffffffffff1663edbdf5e28a3084896040518563ffffffff1660e01b81526004016104169493929190610d05565b600060405180830381600087803b15801561043057600080fd5b505af1158015610444573d6000803e3d6000fd5b50505050600088883384898860405160240161046596959493929190610c6d565b6040516020818303038152906040527fabec0eb2000000000000000000000000000000000000000000000000000000007bffffffffffffffffffffffffffffffffffffffffffffffffffffffff19166020820180517bffffffffffffffffffffffffffffffffffffffffffffffffffffffff838183161783525050505090505050505050505050505050565b6000808473ffffffffffffffffffffffffffffffffffffffff1663095ea7b360e01b8585604051602401610526929190610d4a565b604051602081830303815290604052907bffffffffffffffffffffffffffffffffffffffffffffffffffffffff19166020820180517bffffffffffffffffffffffffffffffffffffffffffffffffffffffff83818316178352505050506040516105909190610c11565b6000604051808303816000865af19150503d80600081146105cd576040519150601f19603f3d011682016040523d82523d6000602084013e6105d2565b606091505b509150915081801561060057506000815114806105ff5750808060200190518101906105fe9190610ad5565b5b5b61063f576040517f08c379a000000000000000000000000000000000000000000000000000000000815260040161063690610d73565b60405180910390fd5b5050505050565b6000808473ffffffffffffffffffffffffffffffffffffffff1663a9059cbb60e01b858560405160240161067b929190610d4a565b604051602081830303815290604052907bffffffffffffffffffffffffffffffffffffffffffffffffffffffff19166020820180517bffffffffffffffffffffffffffffffffffffffffffffffffffffffff83818316178352505050506040516106e59190610c11565b6000604051808303816000865af19150503d8060008114610722576040519150601f19603f3d011682016040523d82523d6000602084013e610727565b606091505b509150915081801561075557506000815114806107545750808060200190518101906107539190610ad5565b5b5b610794576040517f08c379a000000000000000000000000000000000000000000000000000000000815260040161078b90610d93565b60405180910390fd5b5050505050565b6000808573ffffffffffffffffffffffffffffffffffffffff166323b872dd60e01b8686866040516024016107d293929190610cce565b604051602081830303815290604052907bffffffffffffffffffffffffffffffffffffffffffffffffffffffff19166020820180517bffffffffffffffffffffffffffffffffffffffffffffffffffffffff838183161783525050505060405161083c9190610c11565b6000604051808303816000865af19150503d8060008114610879576040519150601f19603f3d011682016040523d82523d6000602084013e61087e565b606091505b50915091508180156108ac57506000815114806108ab5750808060200190518101906108aa9190610ad5565b5b5b6108eb576040517f08c379a00000000000000000000000000000000000000000000000000000000081526004016108e290610db3565b60405180910390fd5b505050505050565b60008135905061090281610f46565b92915050565b60008151905061091781610f46565b92915050565b60008151905061092c81610f5d565b92915050565b60008135905061094181610f74565b92915050565b60008151905061095681610f74565b92915050565b60008135905061096b81610f8b565b92915050565b60006020828403121561098357600080fd5b600061099184828501610908565b91505092915050565b600080600080600080600080610100898b0312156109b757600080fd5b60006109c58b828c016108f3565b98505060206109d68b828c016108f3565b97505060406109e78b828c016108f3565b96505060606109f88b828c016108f3565b9550506080610a098b828c01610932565b94505060a0610a1a8b828c01610932565b93505060c0610a2b8b828c0161095c565b92505060e0610a3c8b828c0161095c565b9150509295985092959890939650565b60008060008060008060c08789031215610a6557600080fd5b6000610a7389828a016108f3565b9650506020610a8489828a016108f3565b9550506040610a9589828a016108f3565b9450506060610aa689828a01610932565b9350506080610ab789828a01610932565b92505060a0610ac889828a0161095c565b9150509295509295509295565b600060208284031215610ae757600080fd5b6000610af58482850161091d565b91505092915050565b600060208284031215610b1057600080fd5b6000610b1e84828501610947565b91505092915050565b610b3081610e1a565b82525050565b6000610b4182610df3565b610b4b8185610dfe565b9350610b5b818560208601610e6f565b80840191505092915050565b6000610b74600283610e09565b9150610b7f82610ea2565b602082019050919050565b6000610b97600283610e09565b9150610ba282610ecb565b602082019050919050565b6000610bba600383610e09565b9150610bc582610ef4565b602082019050919050565b6000610bdd601683610e09565b9150610be882610f1d565b602082019050919050565b610bfc81610e58565b82525050565b610c0b81610e62565b82525050565b6000610c1d8284610b36565b915081905092915050565b6000608082019050610c3d6000830187610b27565b610c4a6020830186610b27565b610c576040830185610b27565b610c646060830184610bf3565b95945050505050565b600060c082019050610c826000830189610b27565b610c8f6020830188610b27565b610c9c6040830187610b27565b610ca96060830186610bf3565b610cb66080830185610bf3565b610cc360a0830184610c02565b979650505050505050565b6000606082019050610ce36000830186610b27565b610cf06020830185610b27565b610cfd6040830184610bf3565b949350505050565b6000608082019050610d1a6000830187610b27565b610d276020830186610b27565b610d346040830185610bf3565b610d416060830184610bf3565b95945050505050565b6000604082019050610d5f6000830185610b27565b610d6c6020830184610bf3565b9392505050565b60006020820190508181036000830152610d8c81610b67565b9050919050565b60006020820190508181036000830152610dac81610b8a565b9050919050565b60006020820190508181036000830152610dcc81610bad565b9050919050565b60006020820190508181036000830152610dec81610bd0565b9050919050565b600081519050919050565b600081905092915050565b600082825260208201905092915050565b6000610e2582610e38565b9050919050565b60008115159050919050565b600073ffffffffffffffffffffffffffffffffffffffff82169050919050565b6000819050919050565b600060ff82169050919050565b60005b83811015610e8d578082015181840152602081019050610e72565b83811115610e9c576000848401525b50505050565b7f5341000000000000000000000000000000000000000000000000000000000000600082015250565b7f5354000000000000000000000000000000000000000000000000000000000000600082015250565b7f5354460000000000000000000000000000000000000000000000000000000000600082015250565b7f57726f6e672064657374696e6174696f6e2063616c6c00000000000000000000600082015250565b610f4f81610e1a565b8114610f5a57600080fd5b50565b610f6681610e2c565b8114610f7157600080fd5b50565b610f7d81610e58565b8114610f8857600080fd5b50565b610f9481610e62565b8114610f9f57600080fd5b5056fea2646970667358221220d2faeeb8ae9f8880a61c21034200631a683cc75a687fa019f4ee0826c8a4b3e664736f6c6343000801003360a060405234801561001057600080fd5b5060405161088338038061088383398181016040528101906100329190610084565b8073ffffffffffffffffffffffffffffffffffffffff1660808173ffffffffffffffffffffffffffffffffffffffff1660601b81525050506100f6565b60008151905061007e816100df565b92915050565b60006020828403121561009657600080fd5b60006100a48482850161006f565b91505092915050565b60006100b8826100bf565b9050919050565b600073ffffffffffffffffffffffffffffffffffffffff82169050919050565b6100e8816100ad565b81146100f357600080fd5b50565b60805160601c61075b6101286000396000818160e50152818161012b0152818161029c0152610353015261075b6000f3fe608060405234801561001057600080fd5b506004361061004c5760003560e01c8063089fe6aa14610051578063a66e4e5f1461006f578063a9678a181461008d578063c31c9c07146100bd575b600080fd5b6100596100db565b6040516100669190610618565b60405180910390f35b6100776100e1565b604051610084919061057d565b60405180910390f35b6100a760048036038101906100a291906103b4565b610109565b6040516100b49190610633565b60405180910390f35b6100c5610351565b6040516100d291906105c1565b60405180910390f35b610bb881565b60007f0000000000000000000000000000000000000000000000000000000000000000905090565b6000808573ffffffffffffffffffffffffffffffffffffffff1663dd62ed3e857f00000000000000000000000000000000000000000000000000000000000000006040518363ffffffff1660e01b8152600401610167929190610598565b60206040518083038186803b15801561017f57600080fd5b505afa158015610193573d6000803e3d6000fd5b505050506040513d601f19601f820116820180604052508101906101b79190610417565b90508281146101fb576040517f08c379a00000000000000000000000000000000000000000000000000000000081526004016101f2906105dc565b60405180910390fd5b60006040518061010001604052808873ffffffffffffffffffffffffffffffffffffffff1681526020018773ffffffffffffffffffffffffffffffffffffffff168152602001610bb862ffffff1681526020018673ffffffffffffffffffffffffffffffffffffffff16815260200142815260200185815260200160008152602001600073ffffffffffffffffffffffffffffffffffffffff1681525090507f000000000000000000000000000000000000000000000000000000000000000073ffffffffffffffffffffffffffffffffffffffff1663414bf389826040518263ffffffff1660e01b81526004016102f391906105fc565b602060405180830381600087803b15801561030d57600080fd5b505af1158015610321573d6000803e3d6000fd5b505050506040513d601f19601f820116820180604052508101906103459190610417565b92505050949350505050565b7f000000000000000000000000000000000000000000000000000000000000000081565b600081359050610384816106f7565b92915050565b6000813590506103998161070e565b92915050565b6000815190506103ae8161070e565b92915050565b600080600080608085870312156103ca57600080fd5b60006103d887828801610375565b94505060206103e987828801610375565b93505060406103fa87828801610375565b925050606061040b8782880161038a565b91505092959194509250565b60006020828403121561042957600080fd5b60006104378482850161039f565b91505092915050565b6104498161065f565b82525050565b6104588161065f565b82525050565b610467816106aa565b82525050565b600061047a60208361064e565b9150610485826106ce565b602082019050919050565b610100820160008201516104a76000850182610440565b5060208201516104ba6020850182610440565b5060408201516104cd6040850182610541565b5060608201516104e06060850182610440565b5060808201516104f3608085018261055f565b5060a082015161050660a085018261055f565b5060c082015161051960c085018261055f565b5060e082015161052c60e0850182610532565b50505050565b61053b81610671565b82525050565b61054a81610691565b82525050565b61055981610691565b82525050565b610568816106a0565b82525050565b610577816106a0565b82525050565b6000602082019050610592600083018461044f565b92915050565b60006040820190506105ad600083018561044f565b6105ba602083018461044f565b9392505050565b60006020820190506105d6600083018461045e565b92915050565b600060208201905081810360008301526105f58161046d565b9050919050565b6000610100820190506106126000830184610490565b92915050565b600060208201905061062d6000830184610550565b92915050565b6000602082019050610648600083018461056e565b92915050565b600082825260208201905092915050565b600061066a82610671565b9050919050565b600073ffffffffffffffffffffffffffffffffffffffff82169050919050565b600062ffffff82169050919050565b6000819050919050565b60006106b5826106bc565b9050919050565b60006106c782610671565b9050919050565b7f535741503a20537761702070726f7669646572206e6f7420616c6c6f7765642e600082015250565b6107008161065f565b811461070b57600080fd5b50565b610717816106a0565b811461072257600080fd5b5056fea2646970667358221220f6f39c6f0ebf0aed4c7b4dd574e72423f973107190dd37b13026b175581f95d964736f6c63430008010033",
  "devdoc": {
    "kind": "dev",
    "methods": {
      "constructor": {
        "params": {
          "_anyswapRouterAddress": "Address of the default bridge",
          "_dexAddresses": "Array of DEX addresses",
          "_dexCodes": "Array of DEX identifiers"
        }
      },
      "finalizeTokenCross(address,address,address,uint256,uint256,uint8)": {
        "details": "This function is executed on the destination chain"
      },
      "initTokensCross(address,address,address,address,uint256,uint256,uint8,uint8)": {
        "details": "This function is executed on the origin chain",
        "params": {
          "_dstCrossToken": "Address of the token that will arrive to the destination chain",
          "_dstDEX": "Identifier of the exchange to use on the destination chain",
          "_dstToken": "Address of the token the user wants to receive on destination",
          "_srcAmount": "Amount of source tokens that user wants to move",
          "_srcCrossToken": "Address of the token we will swap on origin chain to send to the bridge",
          "_srcDEX": "Identifier of the exchange to use on the origin chain",
          "_srcToken": "Address of the token the user wants to swidge",
          "_toChainId": "Chain identifier that the user wants its token to receive"
        }
      }
    },
    "version": 1
  },
  "userdoc": {
    "kind": "user",
    "methods": {
      "finalizeTokenCross(address,address,address,uint256,uint256,uint8)": {
        "notice": "Finalize the process of swidging"
      },
      "initTokensCross(address,address,address,address,uint256,uint256,uint8,uint8)": {
        "notice": "Init the process of swidging"
      }
    },
    "version": 1
  },
  "storageLayout": {
    "storage": [
      {
        "astId": 384,
        "contract": "contracts/RouterForwarder.sol:RouterForwarder",
        "label": "bridge",
        "offset": 0,
        "slot": "0",
        "type": "t_contract(AnyswapRouter)381"
      },
      {
        "astId": 389,
        "contract": "contracts/RouterForwarder.sol:RouterForwarder",
        "label": "swapProviders",
        "offset": 0,
        "slot": "1",
        "type": "t_mapping(t_uint8,t_contract(IDEX)709)"
      }
    ],
    "types": {
      "t_contract(AnyswapRouter)381": {
        "encoding": "inplace",
        "label": "contract AnyswapRouter",
        "numberOfBytes": "20"
      },
      "t_contract(IDEX)709": {
        "encoding": "inplace",
        "label": "contract IDEX",
        "numberOfBytes": "20"
      },
      "t_mapping(t_uint8,t_contract(IDEX)709)": {
        "encoding": "mapping",
        "key": "t_uint8",
        "label": "mapping(uint8 => contract IDEX)",
        "numberOfBytes": "32",
        "value": "t_contract(IDEX)709"
      },
      "t_uint8": {
        "encoding": "inplace",
        "label": "uint8",
        "numberOfBytes": "1"
      }
    }
  }
}